{
	"data": {
		"bytecode": {
			"linkReferences": {},
			"object": "608060405234801561001057600080fd5b506121fe806100206000396000f3fe608060405234801561001057600080fd5b50600436106100415760003560e01c80637d03f5f314610046578063aa57f09c14610064578063efaa55a014610095575b600080fd5b61004e6100c6565b60405161005b9190611d79565b60405180910390f35b61007e60048036038101906100799190611c63565b61027b565b60405161008c929190611d49565b60405180910390f35b6100af60048036038101906100aa9190611c36565b610aa3565b6040516100bd929190611d49565b60405180910390f35b60006100d0611a08565b6001816060019060028111156100e9576100e8611fdf565b5b908160028111156100fd576100fc611fdf565b5b815250506001600081548092919061011490611f3d565b919050555080600080600154815260200190815260200160002060008201518160000160006101000a81548173ffffffffffffffffffffffffffffffffffffffff021916908373ffffffffffffffffffffffffffffffffffffffff16021790555060208201518160010160006101000a81548173ffffffffffffffffffffffffffffffffffffffff021916908373ffffffffffffffffffffffffffffffffffffffff16021790555060408201518160010160146101000a81548160ff021916908360038111156101e7576101e6611fdf565b5b021790555060608201518160010160156101000a81548160ff0219169083600281111561021757610216611fdf565b5b0217905550608082015181600201906003610233929190611a8d565b509050507fc3e0f84839dc888c892a013d10c8f9d6dc05a21a879d0ce468ca558013e9121c6001543360405161026a929190611d94565b60405180910390a160015491505090565b6000606060015485118061035d5750600073ffffffffffffffffffffffffffffffffffffffff1660008087815260200190815260200160002060000160009054906101000a900473ffffffffffffffffffffffffffffffffffffffff1673ffffffffffffffffffffffffffffffffffffffff1614801561035c5750600073ffffffffffffffffffffffffffffffffffffffff1660008087815260200190815260200160002060010160009054906101000a900473ffffffffffffffffffffffffffffffffffffffff1673ffffffffffffffffffffffffffffffffffffffff16145b5b156103a35760006040518060400160405280601481526020017f4e6f20737563682067616d65206578697374732e00000000000000000000000081525091509150610a9b565b60008460ff1610806103b8575060028460ff16115b156103fe5760006040518060400160405280601f81526020017f496e76616c696420696e70757420666f7220782d636f6f7264696e6174652e0081525091509150610a9b565b60008360ff161080610413575060028360ff16115b156104595760006040518060400160405280601f81526020017f496e76616c696420696e70757420666f7220792d636f6f7264696e6174652e0081525091509150610a9b565b600073ffffffffffffffffffffffffffffffffffffffff1660008087815260200190815260200160002060000160009054906101000a900473ffffffffffffffffffffffffffffffffffffffff1673ffffffffffffffffffffffffffffffffffffffff16148061052a5750600073ffffffffffffffffffffffffffffffffffffffff1660008087815260200190815260200160002060010160009054906101000a900473ffffffffffffffffffffffffffffffffffffffff1673ffffffffffffffffffffffffffffffffffffffff16145b156105535760006040518060600160405280602781526020016121a26027913991509150610a9b565b60008060008781526020019081526020016000206040518060a00160405290816000820160009054906101000a900473ffffffffffffffffffffffffffffffffffffffff1673ffffffffffffffffffffffffffffffffffffffff1673ffffffffffffffffffffffffffffffffffffffff1681526020016001820160009054906101000a900473ffffffffffffffffffffffffffffffffffffffff1673ffffffffffffffffffffffffffffffffffffffff1673ffffffffffffffffffffffffffffffffffffffff1681526020016001820160149054906101000a900460ff16600381111561064357610642611fdf565b5b600381111561065557610654611fdf565b5b81526020016001820160159054906101000a900460ff16600281111561067e5761067d611fdf565b5b60028111156106905761068f611fdf565b5b815260200160028201600380602002604051908101604052809291906000905b8282101561072c57838201600380602002604051908101604052809291908260038015610718576020028201916000905b82829054906101000a900460ff1660ff16815260200190600101906020826000010492830192600103820291508084116106e15790505b5050505050815260200190600101906106b0565b505050508152505090506000600381111561074a57610749611fdf565b5b8160400151600381111561076157610760611fdf565b5b146107a85760006040518060400160405280601b81526020017f5468652067616d652068617320616c726561647920656e6465642e00000000008152509250925050610a9b565b6107b181610f46565b73ffffffffffffffffffffffffffffffffffffffff163373ffffffffffffffffffffffffffffffffffffffff16146108255760006040518060400160405280601481526020017f4974206973206e6f7420796f7572207475726e2e0000000000000000000000008152509250925050610a9b565b600181608001518660ff16600381106108415761084061200e565b5b60200201518560ff166003811061085b5761085a61200e565b5b602002015160ff1614806108aa5750600281608001518660ff16600381106108865761088561200e565b5b60200201518560ff16600381106108a05761089f61200e565b5b602002015160ff16145b156108d4576000604051806060016040528060318152602001612096603191399250925050610a9b565b600160028111156108e8576108e7611fdf565b5b816060015160028111156108ff576108fe611fdf565b5b1461090b57600261090e565b60015b81608001518660ff16600381106109285761092761200e565b5b60200201518560ff16600381106109425761094161200e565b5b602002019060ff16908160ff16815250507faa03b0eb53c70f6640eba4234ad2c58782c8927e7abf7d3a6e2c45d07ca9d583863387876040516109889493929190611df4565b60405180910390a1600061099f8260800151610fcb565b9050600060038111156109b5576109b4611fdf565b5b8160038111156109c8576109c7611fdf565b5b14610a795780826040019060038111156109e5576109e4611fdf565b5b908160038111156109f9576109f8611fdf565b5b815250507f132b564c6f96092065580fd28989d181dfbbfe4aa2fb7fb1eda8af68ba3073e08782604051610a2e929190611e39565b60405180910390a160016040518060400160405280601181526020017f5468652067616d65206973206f7665722e000000000000000000000000000000815250935093505050610a9b565b610a8282611159565b6001604051806020016040528060008152509350935050505b935093915050565b60006060600154831115610af25760006040518060400160405280601481526020017f4e6f20737563682067616d65206578697374732e00000000000000000000000081525091509150610f41565b60003390506000806000868152602001908152602001600020905060006003811115610b2157610b20611fdf565b5b8160010160149054906101000a900460ff166003811115610b4557610b44611fdf565b5b14610b8d5760006040518060400160405280601e81526020017f546869732067616d6520697320616c726561647920636f6d706c6574652e0000815250935093505050610f41565b600073ffffffffffffffffffffffffffffffffffffffff168160000160009054906101000a900473ffffffffffffffffffffffffffffffffffffffff1673ffffffffffffffffffffffffffffffffffffffff161415610d4857818160000160006101000a81548173ffffffffffffffffffffffffffffffffffffffff021916908373ffffffffffffffffffffffffffffffffffffffff1602179055507f8f5866c09e99941481e2be79d3a7698371543fe3ad3387b903553fd6043e8550858360016002811115610c6057610c5f611fdf565b5b604051610c6f93929190611dbd565b60405180910390a1600073ffffffffffffffffffffffffffffffffffffffff168160010160009054906101000a900473ffffffffffffffffffffffffffffffffffffffff1673ffffffffffffffffffffffffffffffffffffffff1614610d225760018160010160156101000a81548160ff02191690836002811115610cf757610cf6611fdf565b5b021790555060016040518060800160405280604e81526020016120f3604e9139935093505050610f41565b60016040518060600160405280602c81526020016120c7602c9139935093505050610f41565b600073ffffffffffffffffffffffffffffffffffffffff168160010160009054906101000a900473ffffffffffffffffffffffffffffffffffffffff1673ffffffffffffffffffffffffffffffffffffffff161415610f0257818160010160006101000a81548173ffffffffffffffffffffffffffffffffffffffff021916908373ffffffffffffffffffffffffffffffffffffffff1602179055507f8f5866c09e99941481e2be79d3a7698371543fe3ad3387b903553fd6043e85508583600280811115610e1a57610e19611fdf565b5b604051610e2993929190611dbd565b60405180910390a1600073ffffffffffffffffffffffffffffffffffffffff168160000160009054906101000a900473ffffffffffffffffffffffffffffffffffffffff1673ffffffffffffffffffffffffffffffffffffffff1614610edc5760018160010160156101000a81548160ff02191690836002811115610eb157610eb0611fdf565b5b0217905550600160405180606001604052806035815260200161214160359139935093505050610f41565b60016040518060600160405280602c8152602001612176602c9139935093505050610f41565b60006040518060400160405280602081526020017f546869732067616d6520616c726561647920686173203220706c61796572732e8152509350935050505b915091565b600060016002811115610f5c57610f5b611fdf565b5b82606001516002811115610f7357610f72611fdf565b5b1415610f855781600001519050610fc6565b600280811115610f9857610f97611fdf565b5b82606001516002811115610faf57610fae611fdf565b5b1415610fc15781602001519050610fc6565b600090505b919050565b600080610fd7836111f5565b905060016002811115610fed57610fec611fdf565b5b81600281111561100057610fff611fdf565b5b1415611010576001915050611154565b60028081111561102357611022611fdf565b5b81600281111561103657611035611fdf565b5b1415611046576002915050611154565b61104f836113de565b90506001600281111561106557611064611fdf565b5b81600281111561107857611077611fdf565b5b1415611088576001915050611154565b60028081111561109b5761109a611fdf565b5b8160028111156110ae576110ad611fdf565b5b14156110be576002915050611154565b6110c7836115c7565b9050600160028111156110dd576110dc611fdf565b5b8160028111156110f0576110ef611fdf565b5b1415611100576001915050611154565b60028081111561111357611112611fdf565b5b81600281111561112657611125611fdf565b5b1415611136576002915050611154565b61113f83611923565b1561114e576003915050611154565b60009150505b919050565b6001600281111561116d5761116c611fdf565b5b8160600151600281111561118457611183611fdf565b5b14156111c0576002816060019060028111156111a3576111a2611fdf565b5b908160028111156111b7576111b6611fdf565b5b815250506111f2565b6001816060019060028111156111d9576111d8611fdf565b5b908160028111156111ed576111ec611fdf565b5b815250505b50565b600080600090505b60038160ff1610156113d3576001838260ff16600381106112215761122061200e565b5b60200201516000600381106112395761123861200e565b5b602002015160ff16148061128257506002838260ff16600381106112605761125f61200e565b5b60200201516000600381106112785761127761200e565b5b602002015160ff16145b80156112f75750828160ff166003811061129f5761129e61200e565b5b60200201516001600381106112b7576112b661200e565b5b602002015160ff16838260ff16600381106112d5576112d461200e565b5b60200201516000600381106112ed576112ec61200e565b5b602002015160ff16145b801561136c5750828160ff16600381106113145761131361200e565b5b602002015160026003811061132c5761132b61200e565b5b602002015160ff16838260ff166003811061134a5761134961200e565b5b60200201516001600381106113625761136161200e565b5b602002015160ff16145b156113c0576001838260ff16600381106113895761138861200e565b5b60200201516000600381106113a1576113a061200e565b5b602002015160ff16146113b55760026113b8565b60015b9150506113d9565b80806113cb90611f86565b9150506111fd565b50600090505b919050565b600080600090505b60038160ff1610156115bc576001836000600381106114085761140761200e565b5b60200201518260ff16600381106114225761142161200e565b5b602002015160ff16148061146b57506002836000600381106114475761144661200e565b5b60200201518260ff16600381106114615761146061200e565b5b602002015160ff16145b80156114e05750826001600381106114865761148561200e565b5b60200201518160ff16600381106114a05761149f61200e565b5b602002015160ff16836000600381106114bc576114bb61200e565b5b60200201518260ff16600381106114d6576114d561200e565b5b602002015160ff16145b80156115555750826002600381106114fb576114fa61200e565b5b60200201518160ff16600381106115155761151461200e565b5b602002015160ff16836001600381106115315761153061200e565b5b60200201518260ff166003811061154b5761154a61200e565b5b602002015160ff16145b156115a9576001836000600381106115705761156f61200e565b5b60200201518260ff166003811061158a5761158961200e565b5b602002015160ff161461159e5760026115a1565b60015b9150506115c2565b80806115b490611f86565b9150506113e6565b50600090505b919050565b60006001826000600381106115df576115de61200e565b5b60200201516000600381106115f7576115f661200e565b5b602002015160ff16148061163e575060028260006003811061161c5761161b61200e565b5b60200201516000600381106116345761163361200e565b5b602002015160ff16145b80156116af5750816001600381106116595761165861200e565b5b60200201516001600381106116715761167061200e565b5b602002015160ff168260006003811061168d5761168c61200e565b5b60200201516000600381106116a5576116a461200e565b5b602002015160ff16145b80156117205750816002600381106116ca576116c961200e565b5b60200201516002600381106116e2576116e161200e565b5b602002015160ff16826001600381106116fe576116fd61200e565b5b60200201516001600381106117165761171561200e565b5b602002015160ff16145b156117715760018260006003811061173b5761173a61200e565b5b60200201516000600381106117535761175261200e565b5b602002015160ff161461176757600261176a565b60015b905061191e565b6001826000600381106117875761178661200e565b5b602002015160026003811061179f5761179e61200e565b5b602002015160ff1614806117e657506002826000600381106117c4576117c361200e565b5b60200201516002600381106117dc576117db61200e565b5b602002015160ff16145b80156118575750816001600381106118015761180061200e565b5b60200201516001600381106118195761181861200e565b5b602002015160ff16826000600381106118355761183461200e565b5b602002015160026003811061184d5761184c61200e565b5b602002015160ff16145b80156118c85750816002600381106118725761187161200e565b5b602002015160006003811061188a5761188961200e565b5b602002015160ff16826001600381106118a6576118a561200e565b5b60200201516001600381106118be576118bd61200e565b5b602002015160ff16145b15611919576001826000600381106118e3576118e261200e565b5b60200201516002600381106118fb576118fa61200e565b5b602002015160ff161461190f576002611912565b60015b905061191e565b600090505b919050565b600080600090505b60038160ff1610156119fd5760005b60038160ff1610156119e9576001848360ff166003811061195e5761195d61200e565b5b60200201518260ff16600381106119785761197761200e565b5b602002015160ff16141580156119c657506002848360ff16600381106119a1576119a061200e565b5b60200201518260ff16600381106119bb576119ba61200e565b5b602002015160ff1614155b156119d657600092505050611a03565b80806119e190611f86565b91505061193a565b5080806119f590611f86565b91505061192b565b50600190505b919050565b6040518060a00160405280600073ffffffffffffffffffffffffffffffffffffffff168152602001600073ffffffffffffffffffffffffffffffffffffffff16815260200160006003811115611a6157611a60611fdf565b5b815260200160006002811115611a7a57611a79611fdf565b5b8152602001611a87611adb565b81525090565b8260038101928215611aca579160200282015b82811115611ac957825182906003611ab9929190611b08565b5091602001919060010190611aa0565b5b509050611ad79190611ba2565b5090565b60405180606001604052806003905b611af2611bc6565b815260200190600190039081611aea5790505090565b826003601f01602090048101928215611b915791602002820160005b83821115611b6257835183826101000a81548160ff021916908360ff1602179055509260200192600101602081600001049283019260010302611b24565b8015611b8f5782816101000a81549060ff0219169055600101602081600001049283019260010302611b62565b505b509050611b9e9190611be8565b5090565b5b80821115611bc25760008181611bb99190611c05565b50600101611ba3565b5090565b6040518060600160405280600390602082028036833780820191505090505090565b5b80821115611c01576000816000905550600101611be9565b5090565b5060009055565b600081359050611c1b81612067565b92915050565b600081359050611c308161207e565b92915050565b600060208284031215611c4c57611c4b61203d565b5b6000611c5a84828501611c0c565b91505092915050565b600080600060608486031215611c7c57611c7b61203d565b5b6000611c8a86828701611c0c565b9350506020611c9b86828701611c21565b9250506040611cac86828701611c21565b9150509250925092565b611cbf81611e7e565b82525050565b611cce81611e90565b82525050565b611cdd81611ee6565b82525050565b6000611cee82611e62565b611cf88185611e6d565b9350611d08818560208601611f0a565b611d1181612042565b840191505092915050565b611d2581611ecf565b82525050565b611d3481611ef8565b82525050565b611d4381611ed9565b82525050565b6000604082019050611d5e6000830185611cc5565b8181036020830152611d708184611ce3565b90509392505050565b6000602082019050611d8e6000830184611d1c565b92915050565b6000604082019050611da96000830185611d1c565b611db66020830184611cb6565b9392505050565b6000606082019050611dd26000830186611d1c565b611ddf6020830185611cb6565b611dec6040830184611d3a565b949350505050565b6000608082019050611e096000830187611d1c565b611e166020830186611cb6565b611e236040830185611d2b565b611e306060830184611d2b565b95945050505050565b6000604082019050611e4e6000830185611d1c565b611e5b6020830184611cd4565b9392505050565b600081519050919050565b600082825260208201905092915050565b6000611e8982611eaf565b9050919050565b60008115159050919050565b6000819050611eaa82612053565b919050565b600073ffffffffffffffffffffffffffffffffffffffff82169050919050565b6000819050919050565b600060ff82169050919050565b6000611ef182611e9c565b9050919050565b6000611f0382611ed9565b9050919050565b60005b83811015611f28578082015181840152602081019050611f0d565b83811115611f37576000848401525b50505050565b6000611f4882611ecf565b91507fffffffffffffffffffffffffffffffffffffffffffffffffffffffffffffffff821415611f7b57611f7a611fb0565b5b600182019050919050565b6000611f9182611ed9565b915060ff821415611fa557611fa4611fb0565b5b600182019050919050565b7f4e487b7100000000000000000000000000000000000000000000000000000000600052601160045260246000fd5b7f4e487b7100000000000000000000000000000000000000000000000000000000600052602160045260246000fd5b7f4e487b7100000000000000000000000000000000000000000000000000000000600052603260045260246000fd5b600080fd5b6000601f19601f8301169050919050565b6004811061206457612063611fdf565b5b50565b61207081611ecf565b811461207b57600080fd5b50565b61208781611ed9565b811461209257600080fd5b5056fe546865726520697320616c72656164792061206d61726b2061742074686520676976656e20636f6f7264696e617465732e4a6f696e656420617320706c6179657220312e2047616d65206861736e27742073746172746564207965742e4a6f696e656420617320706c6179657220312e20506c61796572203220616c7265616479206578697374732e20506c6179657220312063616e206d616b6520746865206669727374206d6f76652e4a6f696e656420617320706c6179657220322e20506c6179657220312063616e206d616b6520746865206669727374206d6f76652e4a6f696e656420617320706c6179657220322e2047616d65206861736e27742073746172746564207965742e546869732067616d6520646f65736e277420686176652074776f20706c6179657273207965742ea2646970667358221220333d2fd143b381d07e29bff8aa1df6423b6f9f9950a43744441d016a058e990564736f6c63430008070033",
			"opcodes": "PUSH1 0x80 PUSH1 0x40 MSTORE CALLVALUE DUP1 ISZERO PUSH2 0x10 JUMPI PUSH1 0x0 DUP1 REVERT JUMPDEST POP PUSH2 0x21FE DUP1 PUSH2 0x20 PUSH1 0x0 CODECOPY PUSH1 0x0 RETURN INVALID PUSH1 0x80 PUSH1 0x40 MSTORE CALLVALUE DUP1 ISZERO PUSH2 0x10 JUMPI PUSH1 0x0 DUP1 REVERT JUMPDEST POP PUSH1 0x4 CALLDATASIZE LT PUSH2 0x41 JUMPI PUSH1 0x0 CALLDATALOAD PUSH1 0xE0 SHR DUP1 PUSH4 0x7D03F5F3 EQ PUSH2 0x46 JUMPI DUP1 PUSH4 0xAA57F09C EQ PUSH2 0x64 JUMPI DUP1 PUSH4 0xEFAA55A0 EQ PUSH2 0x95 JUMPI JUMPDEST PUSH1 0x0 DUP1 REVERT JUMPDEST PUSH2 0x4E PUSH2 0xC6 JUMP JUMPDEST PUSH1 0x40 MLOAD PUSH2 0x5B SWAP2 SWAP1 PUSH2 0x1D79 JUMP JUMPDEST PUSH1 0x40 MLOAD DUP1 SWAP2 SUB SWAP1 RETURN JUMPDEST PUSH2 0x7E PUSH1 0x4 DUP1 CALLDATASIZE SUB DUP2 ADD SWAP1 PUSH2 0x79 SWAP2 SWAP1 PUSH2 0x1C63 JUMP JUMPDEST PUSH2 0x27B JUMP JUMPDEST PUSH1 0x40 MLOAD PUSH2 0x8C SWAP3 SWAP2 SWAP1 PUSH2 0x1D49 JUMP JUMPDEST PUSH1 0x40 MLOAD DUP1 SWAP2 SUB SWAP1 RETURN JUMPDEST PUSH2 0xAF PUSH1 0x4 DUP1 CALLDATASIZE SUB DUP2 ADD SWAP1 PUSH2 0xAA SWAP2 SWAP1 PUSH2 0x1C36 JUMP JUMPDEST PUSH2 0xAA3 JUMP JUMPDEST PUSH1 0x40 MLOAD PUSH2 0xBD SWAP3 SWAP2 SWAP1 PUSH2 0x1D49 JUMP JUMPDEST PUSH1 0x40 MLOAD DUP1 SWAP2 SUB SWAP1 RETURN JUMPDEST PUSH1 0x0 PUSH2 0xD0 PUSH2 0x1A08 JUMP JUMPDEST PUSH1 0x1 DUP2 PUSH1 0x60 ADD SWAP1 PUSH1 0x2 DUP2 GT ISZERO PUSH2 0xE9 JUMPI PUSH2 0xE8 PUSH2 0x1FDF JUMP JUMPDEST JUMPDEST SWAP1 DUP2 PUSH1 0x2 DUP2 GT ISZERO PUSH2 0xFD JUMPI PUSH2 0xFC PUSH2 0x1FDF JUMP JUMPDEST JUMPDEST DUP2 MSTORE POP POP PUSH1 0x1 PUSH1 0x0 DUP2 SLOAD DUP1 SWAP3 SWAP2 SWAP1 PUSH2 0x114 SWAP1 PUSH2 0x1F3D JUMP JUMPDEST SWAP2 SWAP1 POP SSTORE POP DUP1 PUSH1 0x0 DUP1 PUSH1 0x1 SLOAD DUP2 MSTORE PUSH1 0x20 ADD SWAP1 DUP2 MSTORE PUSH1 0x20 ADD PUSH1 0x0 KECCAK256 PUSH1 0x0 DUP3 ADD MLOAD DUP2 PUSH1 0x0 ADD PUSH1 0x0 PUSH2 0x100 EXP DUP2 SLOAD DUP2 PUSH20 0xFFFFFFFFFFFFFFFFFFFFFFFFFFFFFFFFFFFFFFFF MUL NOT AND SWAP1 DUP4 PUSH20 0xFFFFFFFFFFFFFFFFFFFFFFFFFFFFFFFFFFFFFFFF AND MUL OR SWAP1 SSTORE POP PUSH1 0x20 DUP3 ADD MLOAD DUP2 PUSH1 0x1 ADD PUSH1 0x0 PUSH2 0x100 EXP DUP2 SLOAD DUP2 PUSH20 0xFFFFFFFFFFFFFFFFFFFFFFFFFFFFFFFFFFFFFFFF MUL NOT AND SWAP1 DUP4 PUSH20 0xFFFFFFFFFFFFFFFFFFFFFFFFFFFFFFFFFFFFFFFF AND MUL OR SWAP1 SSTORE POP PUSH1 0x40 DUP3 ADD MLOAD DUP2 PUSH1 0x1 ADD PUSH1 0x14 PUSH2 0x100 EXP DUP2 SLOAD DUP2 PUSH1 0xFF MUL NOT AND SWAP1 DUP4 PUSH1 0x3 DUP2 GT ISZERO PUSH2 0x1E7 JUMPI PUSH2 0x1E6 PUSH2 0x1FDF JUMP JUMPDEST JUMPDEST MUL OR SWAP1 SSTORE POP PUSH1 0x60 DUP3 ADD MLOAD DUP2 PUSH1 0x1 ADD PUSH1 0x15 PUSH2 0x100 EXP DUP2 SLOAD DUP2 PUSH1 0xFF MUL NOT AND SWAP1 DUP4 PUSH1 0x2 DUP2 GT ISZERO PUSH2 0x217 JUMPI PUSH2 0x216 PUSH2 0x1FDF JUMP JUMPDEST JUMPDEST MUL OR SWAP1 SSTORE POP PUSH1 0x80 DUP3 ADD MLOAD DUP2 PUSH1 0x2 ADD SWAP1 PUSH1 0x3 PUSH2 0x233 SWAP3 SWAP2 SWAP1 PUSH2 0x1A8D JUMP JUMPDEST POP SWAP1 POP POP PUSH32 0xC3E0F84839DC888C892A013D10C8F9D6DC05A21A879D0CE468CA558013E9121C PUSH1 0x1 SLOAD CALLER PUSH1 0x40 MLOAD PUSH2 0x26A SWAP3 SWAP2 SWAP1 PUSH2 0x1D94 JUMP JUMPDEST PUSH1 0x40 MLOAD DUP1 SWAP2 SUB SWAP1 LOG1 PUSH1 0x1 SLOAD SWAP2 POP POP SWAP1 JUMP JUMPDEST PUSH1 0x0 PUSH1 0x60 PUSH1 0x1 SLOAD DUP6 GT DUP1 PUSH2 0x35D JUMPI POP PUSH1 0x0 PUSH20 0xFFFFFFFFFFFFFFFFFFFFFFFFFFFFFFFFFFFFFFFF AND PUSH1 0x0 DUP1 DUP8 DUP2 MSTORE PUSH1 0x20 ADD SWAP1 DUP2 MSTORE PUSH1 0x20 ADD PUSH1 0x0 KECCAK256 PUSH1 0x0 ADD PUSH1 0x0 SWAP1 SLOAD SWAP1 PUSH2 0x100 EXP SWAP1 DIV PUSH20 0xFFFFFFFFFFFFFFFFFFFFFFFFFFFFFFFFFFFFFFFF AND PUSH20 0xFFFFFFFFFFFFFFFFFFFFFFFFFFFFFFFFFFFFFFFF AND EQ DUP1 ISZERO PUSH2 0x35C JUMPI POP PUSH1 0x0 PUSH20 0xFFFFFFFFFFFFFFFFFFFFFFFFFFFFFFFFFFFFFFFF AND PUSH1 0x0 DUP1 DUP8 DUP2 MSTORE PUSH1 0x20 ADD SWAP1 DUP2 MSTORE PUSH1 0x20 ADD PUSH1 0x0 KECCAK256 PUSH1 0x1 ADD PUSH1 0x0 SWAP1 SLOAD SWAP1 PUSH2 0x100 EXP SWAP1 DIV PUSH20 0xFFFFFFFFFFFFFFFFFFFFFFFFFFFFFFFFFFFFFFFF AND PUSH20 0xFFFFFFFFFFFFFFFFFFFFFFFFFFFFFFFFFFFFFFFF AND EQ JUMPDEST JUMPDEST ISZERO PUSH2 0x3A3 JUMPI PUSH1 0x0 PUSH1 0x40 MLOAD DUP1 PUSH1 0x40 ADD PUSH1 0x40 MSTORE DUP1 PUSH1 0x14 DUP2 MSTORE PUSH1 0x20 ADD PUSH32 0x4E6F20737563682067616D65206578697374732E000000000000000000000000 DUP2 MSTORE POP SWAP2 POP SWAP2 POP PUSH2 0xA9B JUMP JUMPDEST PUSH1 0x0 DUP5 PUSH1 0xFF AND LT DUP1 PUSH2 0x3B8 JUMPI POP PUSH1 0x2 DUP5 PUSH1 0xFF AND GT JUMPDEST ISZERO PUSH2 0x3FE JUMPI PUSH1 0x0 PUSH1 0x40 MLOAD DUP1 PUSH1 0x40 ADD PUSH1 0x40 MSTORE DUP1 PUSH1 0x1F DUP2 MSTORE PUSH1 0x20 ADD PUSH32 0x496E76616C696420696E70757420666F7220782D636F6F7264696E6174652E00 DUP2 MSTORE POP SWAP2 POP SWAP2 POP PUSH2 0xA9B JUMP JUMPDEST PUSH1 0x0 DUP4 PUSH1 0xFF AND LT DUP1 PUSH2 0x413 JUMPI POP PUSH1 0x2 DUP4 PUSH1 0xFF AND GT JUMPDEST ISZERO PUSH2 0x459 JUMPI PUSH1 0x0 PUSH1 0x40 MLOAD DUP1 PUSH1 0x40 ADD PUSH1 0x40 MSTORE DUP1 PUSH1 0x1F DUP2 MSTORE PUSH1 0x20 ADD PUSH32 0x496E76616C696420696E70757420666F7220792D636F6F7264696E6174652E00 DUP2 MSTORE POP SWAP2 POP SWAP2 POP PUSH2 0xA9B JUMP JUMPDEST PUSH1 0x0 PUSH20 0xFFFFFFFFFFFFFFFFFFFFFFFFFFFFFFFFFFFFFFFF AND PUSH1 0x0 DUP1 DUP8 DUP2 MSTORE PUSH1 0x20 ADD SWAP1 DUP2 MSTORE PUSH1 0x20 ADD PUSH1 0x0 KECCAK256 PUSH1 0x0 ADD PUSH1 0x0 SWAP1 SLOAD SWAP1 PUSH2 0x100 EXP SWAP1 DIV PUSH20 0xFFFFFFFFFFFFFFFFFFFFFFFFFFFFFFFFFFFFFFFF AND PUSH20 0xFFFFFFFFFFFFFFFFFFFFFFFFFFFFFFFFFFFFFFFF AND EQ DUP1 PUSH2 0x52A JUMPI POP PUSH1 0x0 PUSH20 0xFFFFFFFFFFFFFFFFFFFFFFFFFFFFFFFFFFFFFFFF AND PUSH1 0x0 DUP1 DUP8 DUP2 MSTORE PUSH1 0x20 ADD SWAP1 DUP2 MSTORE PUSH1 0x20 ADD PUSH1 0x0 KECCAK256 PUSH1 0x1 ADD PUSH1 0x0 SWAP1 SLOAD SWAP1 PUSH2 0x100 EXP SWAP1 DIV PUSH20 0xFFFFFFFFFFFFFFFFFFFFFFFFFFFFFFFFFFFFFFFF AND PUSH20 0xFFFFFFFFFFFFFFFFFFFFFFFFFFFFFFFFFFFFFFFF AND EQ JUMPDEST ISZERO PUSH2 0x553 JUMPI PUSH1 0x0 PUSH1 0x40 MLOAD DUP1 PUSH1 0x60 ADD PUSH1 0x40 MSTORE DUP1 PUSH1 0x27 DUP2 MSTORE PUSH1 0x20 ADD PUSH2 0x21A2 PUSH1 0x27 SWAP2 CODECOPY SWAP2 POP SWAP2 POP PUSH2 0xA9B JUMP JUMPDEST PUSH1 0x0 DUP1 PUSH1 0x0 DUP8 DUP2 MSTORE PUSH1 0x20 ADD SWAP1 DUP2 MSTORE PUSH1 0x20 ADD PUSH1 0x0 KECCAK256 PUSH1 0x40 MLOAD DUP1 PUSH1 0xA0 ADD PUSH1 0x40 MSTORE SWAP1 DUP2 PUSH1 0x0 DUP3 ADD PUSH1 0x0 SWAP1 SLOAD SWAP1 PUSH2 0x100 EXP SWAP1 DIV PUSH20 0xFFFFFFFFFFFFFFFFFFFFFFFFFFFFFFFFFFFFFFFF AND PUSH20 0xFFFFFFFFFFFFFFFFFFFFFFFFFFFFFFFFFFFFFFFF AND PUSH20 0xFFFFFFFFFFFFFFFFFFFFFFFFFFFFFFFFFFFFFFFF AND DUP2 MSTORE PUSH1 0x20 ADD PUSH1 0x1 DUP3 ADD PUSH1 0x0 SWAP1 SLOAD SWAP1 PUSH2 0x100 EXP SWAP1 DIV PUSH20 0xFFFFFFFFFFFFFFFFFFFFFFFFFFFFFFFFFFFFFFFF AND PUSH20 0xFFFFFFFFFFFFFFFFFFFFFFFFFFFFFFFFFFFFFFFF AND PUSH20 0xFFFFFFFFFFFFFFFFFFFFFFFFFFFFFFFFFFFFFFFF AND DUP2 MSTORE PUSH1 0x20 ADD PUSH1 0x1 DUP3 ADD PUSH1 0x14 SWAP1 SLOAD SWAP1 PUSH2 0x100 EXP SWAP1 DIV PUSH1 0xFF AND PUSH1 0x3 DUP2 GT ISZERO PUSH2 0x643 JUMPI PUSH2 0x642 PUSH2 0x1FDF JUMP JUMPDEST JUMPDEST PUSH1 0x3 DUP2 GT ISZERO PUSH2 0x655 JUMPI PUSH2 0x654 PUSH2 0x1FDF JUMP JUMPDEST JUMPDEST DUP2 MSTORE PUSH1 0x20 ADD PUSH1 0x1 DUP3 ADD PUSH1 0x15 SWAP1 SLOAD SWAP1 PUSH2 0x100 EXP SWAP1 DIV PUSH1 0xFF AND PUSH1 0x2 DUP2 GT ISZERO PUSH2 0x67E JUMPI PUSH2 0x67D PUSH2 0x1FDF JUMP JUMPDEST JUMPDEST PUSH1 0x2 DUP2 GT ISZERO PUSH2 0x690 JUMPI PUSH2 0x68F PUSH2 0x1FDF JUMP JUMPDEST JUMPDEST DUP2 MSTORE PUSH1 0x20 ADD PUSH1 0x2 DUP3 ADD PUSH1 0x3 DUP1 PUSH1 0x20 MUL PUSH1 0x40 MLOAD SWAP1 DUP2 ADD PUSH1 0x40 MSTORE DUP1 SWAP3 SWAP2 SWAP1 PUSH1 0x0 SWAP1 JUMPDEST DUP3 DUP3 LT ISZERO PUSH2 0x72C JUMPI DUP4 DUP3 ADD PUSH1 0x3 DUP1 PUSH1 0x20 MUL PUSH1 0x40 MLOAD SWAP1 DUP2 ADD PUSH1 0x40 MSTORE DUP1 SWAP3 SWAP2 SWAP1 DUP3 PUSH1 0x3 DUP1 ISZERO PUSH2 0x718 JUMPI PUSH1 0x20 MUL DUP3 ADD SWAP2 PUSH1 0x0 SWAP1 JUMPDEST DUP3 DUP3 SWAP1 SLOAD SWAP1 PUSH2 0x100 EXP SWAP1 DIV PUSH1 0xFF AND PUSH1 0xFF AND DUP2 MSTORE PUSH1 0x20 ADD SWAP1 PUSH1 0x1 ADD SWAP1 PUSH1 0x20 DUP3 PUSH1 0x0 ADD DIV SWAP3 DUP4 ADD SWAP3 PUSH1 0x1 SUB DUP3 MUL SWAP2 POP DUP1 DUP5 GT PUSH2 0x6E1 JUMPI SWAP1 POP JUMPDEST POP POP POP POP POP DUP2 MSTORE PUSH1 0x20 ADD SWAP1 PUSH1 0x1 ADD SWAP1 PUSH2 0x6B0 JUMP JUMPDEST POP POP POP POP DUP2 MSTORE POP POP SWAP1 POP PUSH1 0x0 PUSH1 0x3 DUP2 GT ISZERO PUSH2 0x74A JUMPI PUSH2 0x749 PUSH2 0x1FDF JUMP JUMPDEST JUMPDEST DUP2 PUSH1 0x40 ADD MLOAD PUSH1 0x3 DUP2 GT ISZERO PUSH2 0x761 JUMPI PUSH2 0x760 PUSH2 0x1FDF JUMP JUMPDEST JUMPDEST EQ PUSH2 0x7A8 JUMPI PUSH1 0x0 PUSH1 0x40 MLOAD DUP1 PUSH1 0x40 ADD PUSH1 0x40 MSTORE DUP1 PUSH1 0x1B DUP2 MSTORE PUSH1 0x20 ADD PUSH32 0x5468652067616D652068617320616C726561647920656E6465642E0000000000 DUP2 MSTORE POP SWAP3 POP SWAP3 POP POP PUSH2 0xA9B JUMP JUMPDEST PUSH2 0x7B1 DUP2 PUSH2 0xF46 JUMP JUMPDEST PUSH20 0xFFFFFFFFFFFFFFFFFFFFFFFFFFFFFFFFFFFFFFFF AND CALLER PUSH20 0xFFFFFFFFFFFFFFFFFFFFFFFFFFFFFFFFFFFFFFFF AND EQ PUSH2 0x825 JUMPI PUSH1 0x0 PUSH1 0x40 MLOAD DUP1 PUSH1 0x40 ADD PUSH1 0x40 MSTORE DUP1 PUSH1 0x14 DUP2 MSTORE PUSH1 0x20 ADD PUSH32 0x4974206973206E6F7420796F7572207475726E2E000000000000000000000000 DUP2 MSTORE POP SWAP3 POP SWAP3 POP POP PUSH2 0xA9B JUMP JUMPDEST PUSH1 0x1 DUP2 PUSH1 0x80 ADD MLOAD DUP7 PUSH1 0xFF AND PUSH1 0x3 DUP2 LT PUSH2 0x841 JUMPI PUSH2 0x840 PUSH2 0x200E JUMP JUMPDEST JUMPDEST PUSH1 0x20 MUL ADD MLOAD DUP6 PUSH1 0xFF AND PUSH1 0x3 DUP2 LT PUSH2 0x85B JUMPI PUSH2 0x85A PUSH2 0x200E JUMP JUMPDEST JUMPDEST PUSH1 0x20 MUL ADD MLOAD PUSH1 0xFF AND EQ DUP1 PUSH2 0x8AA JUMPI POP PUSH1 0x2 DUP2 PUSH1 0x80 ADD MLOAD DUP7 PUSH1 0xFF AND PUSH1 0x3 DUP2 LT PUSH2 0x886 JUMPI PUSH2 0x885 PUSH2 0x200E JUMP JUMPDEST JUMPDEST PUSH1 0x20 MUL ADD MLOAD DUP6 PUSH1 0xFF AND PUSH1 0x3 DUP2 LT PUSH2 0x8A0 JUMPI PUSH2 0x89F PUSH2 0x200E JUMP JUMPDEST JUMPDEST PUSH1 0x20 MUL ADD MLOAD PUSH1 0xFF AND EQ JUMPDEST ISZERO PUSH2 0x8D4 JUMPI PUSH1 0x0 PUSH1 0x40 MLOAD DUP1 PUSH1 0x60 ADD PUSH1 0x40 MSTORE DUP1 PUSH1 0x31 DUP2 MSTORE PUSH1 0x20 ADD PUSH2 0x2096 PUSH1 0x31 SWAP2 CODECOPY SWAP3 POP SWAP3 POP POP PUSH2 0xA9B JUMP JUMPDEST PUSH1 0x1 PUSH1 0x2 DUP2 GT ISZERO PUSH2 0x8E8 JUMPI PUSH2 0x8E7 PUSH2 0x1FDF JUMP JUMPDEST JUMPDEST DUP2 PUSH1 0x60 ADD MLOAD PUSH1 0x2 DUP2 GT ISZERO PUSH2 0x8FF JUMPI PUSH2 0x8FE PUSH2 0x1FDF JUMP JUMPDEST JUMPDEST EQ PUSH2 0x90B JUMPI PUSH1 0x2 PUSH2 0x90E JUMP JUMPDEST PUSH1 0x1 JUMPDEST DUP2 PUSH1 0x80 ADD MLOAD DUP7 PUSH1 0xFF AND PUSH1 0x3 DUP2 LT PUSH2 0x928 JUMPI PUSH2 0x927 PUSH2 0x200E JUMP JUMPDEST JUMPDEST PUSH1 0x20 MUL ADD MLOAD DUP6 PUSH1 0xFF AND PUSH1 0x3 DUP2 LT PUSH2 0x942 JUMPI PUSH2 0x941 PUSH2 0x200E JUMP JUMPDEST JUMPDEST PUSH1 0x20 MUL ADD SWAP1 PUSH1 0xFF AND SWAP1 DUP2 PUSH1 0xFF AND DUP2 MSTORE POP POP PUSH32 0xAA03B0EB53C70F6640EBA4234AD2C58782C8927E7ABF7D3A6E2C45D07CA9D583 DUP7 CALLER DUP8 DUP8 PUSH1 0x40 MLOAD PUSH2 0x988 SWAP5 SWAP4 SWAP3 SWAP2 SWAP1 PUSH2 0x1DF4 JUMP JUMPDEST PUSH1 0x40 MLOAD DUP1 SWAP2 SUB SWAP1 LOG1 PUSH1 0x0 PUSH2 0x99F DUP3 PUSH1 0x80 ADD MLOAD PUSH2 0xFCB JUMP JUMPDEST SWAP1 POP PUSH1 0x0 PUSH1 0x3 DUP2 GT ISZERO PUSH2 0x9B5 JUMPI PUSH2 0x9B4 PUSH2 0x1FDF JUMP JUMPDEST JUMPDEST DUP2 PUSH1 0x3 DUP2 GT ISZERO PUSH2 0x9C8 JUMPI PUSH2 0x9C7 PUSH2 0x1FDF JUMP JUMPDEST JUMPDEST EQ PUSH2 0xA79 JUMPI DUP1 DUP3 PUSH1 0x40 ADD SWAP1 PUSH1 0x3 DUP2 GT ISZERO PUSH2 0x9E5 JUMPI PUSH2 0x9E4 PUSH2 0x1FDF JUMP JUMPDEST JUMPDEST SWAP1 DUP2 PUSH1 0x3 DUP2 GT ISZERO PUSH2 0x9F9 JUMPI PUSH2 0x9F8 PUSH2 0x1FDF JUMP JUMPDEST JUMPDEST DUP2 MSTORE POP POP PUSH32 0x132B564C6F96092065580FD28989D181DFBBFE4AA2FB7FB1EDA8AF68BA3073E0 DUP8 DUP3 PUSH1 0x40 MLOAD PUSH2 0xA2E SWAP3 SWAP2 SWAP1 PUSH2 0x1E39 JUMP JUMPDEST PUSH1 0x40 MLOAD DUP1 SWAP2 SUB SWAP1 LOG1 PUSH1 0x1 PUSH1 0x40 MLOAD DUP1 PUSH1 0x40 ADD PUSH1 0x40 MSTORE DUP1 PUSH1 0x11 DUP2 MSTORE PUSH1 0x20 ADD PUSH32 0x5468652067616D65206973206F7665722E000000000000000000000000000000 DUP2 MSTORE POP SWAP4 POP SWAP4 POP POP POP PUSH2 0xA9B JUMP JUMPDEST PUSH2 0xA82 DUP3 PUSH2 0x1159 JUMP JUMPDEST PUSH1 0x1 PUSH1 0x40 MLOAD DUP1 PUSH1 0x20 ADD PUSH1 0x40 MSTORE DUP1 PUSH1 0x0 DUP2 MSTORE POP SWAP4 POP SWAP4 POP POP POP JUMPDEST SWAP4 POP SWAP4 SWAP2 POP POP JUMP JUMPDEST PUSH1 0x0 PUSH1 0x60 PUSH1 0x1 SLOAD DUP4 GT ISZERO PUSH2 0xAF2 JUMPI PUSH1 0x0 PUSH1 0x40 MLOAD DUP1 PUSH1 0x40 ADD PUSH1 0x40 MSTORE DUP1 PUSH1 0x14 DUP2 MSTORE PUSH1 0x20 ADD PUSH32 0x4E6F20737563682067616D65206578697374732E000000000000000000000000 DUP2 MSTORE POP SWAP2 POP SWAP2 POP PUSH2 0xF41 JUMP JUMPDEST PUSH1 0x0 CALLER SWAP1 POP PUSH1 0x0 DUP1 PUSH1 0x0 DUP7 DUP2 MSTORE PUSH1 0x20 ADD SWAP1 DUP2 MSTORE PUSH1 0x20 ADD PUSH1 0x0 KECCAK256 SWAP1 POP PUSH1 0x0 PUSH1 0x3 DUP2 GT ISZERO PUSH2 0xB21 JUMPI PUSH2 0xB20 PUSH2 0x1FDF JUMP JUMPDEST JUMPDEST DUP2 PUSH1 0x1 ADD PUSH1 0x14 SWAP1 SLOAD SWAP1 PUSH2 0x100 EXP SWAP1 DIV PUSH1 0xFF AND PUSH1 0x3 DUP2 GT ISZERO PUSH2 0xB45 JUMPI PUSH2 0xB44 PUSH2 0x1FDF JUMP JUMPDEST JUMPDEST EQ PUSH2 0xB8D JUMPI PUSH1 0x0 PUSH1 0x40 MLOAD DUP1 PUSH1 0x40 ADD PUSH1 0x40 MSTORE DUP1 PUSH1 0x1E DUP2 MSTORE PUSH1 0x20 ADD PUSH32 0x546869732067616D6520697320616C726561647920636F6D706C6574652E0000 DUP2 MSTORE POP SWAP4 POP SWAP4 POP POP POP PUSH2 0xF41 JUMP JUMPDEST PUSH1 0x0 PUSH20 0xFFFFFFFFFFFFFFFFFFFFFFFFFFFFFFFFFFFFFFFF AND DUP2 PUSH1 0x0 ADD PUSH1 0x0 SWAP1 SLOAD SWAP1 PUSH2 0x100 EXP SWAP1 DIV PUSH20 0xFFFFFFFFFFFFFFFFFFFFFFFFFFFFFFFFFFFFFFFF AND PUSH20 0xFFFFFFFFFFFFFFFFFFFFFFFFFFFFFFFFFFFFFFFF AND EQ ISZERO PUSH2 0xD48 JUMPI DUP2 DUP2 PUSH1 0x0 ADD PUSH1 0x0 PUSH2 0x100 EXP DUP2 SLOAD DUP2 PUSH20 0xFFFFFFFFFFFFFFFFFFFFFFFFFFFFFFFFFFFFFFFF MUL NOT AND SWAP1 DUP4 PUSH20 0xFFFFFFFFFFFFFFFFFFFFFFFFFFFFFFFFFFFFFFFF AND MUL OR SWAP1 SSTORE POP PUSH32 0x8F5866C09E99941481E2BE79D3A7698371543FE3AD3387B903553FD6043E8550 DUP6 DUP4 PUSH1 0x1 PUSH1 0x2 DUP2 GT ISZERO PUSH2 0xC60 JUMPI PUSH2 0xC5F PUSH2 0x1FDF JUMP JUMPDEST JUMPDEST PUSH1 0x40 MLOAD PUSH2 0xC6F SWAP4 SWAP3 SWAP2 SWAP1 PUSH2 0x1DBD JUMP JUMPDEST PUSH1 0x40 MLOAD DUP1 SWAP2 SUB SWAP1 LOG1 PUSH1 0x0 PUSH20 0xFFFFFFFFFFFFFFFFFFFFFFFFFFFFFFFFFFFFFFFF AND DUP2 PUSH1 0x1 ADD PUSH1 0x0 SWAP1 SLOAD SWAP1 PUSH2 0x100 EXP SWAP1 DIV PUSH20 0xFFFFFFFFFFFFFFFFFFFFFFFFFFFFFFFFFFFFFFFF AND PUSH20 0xFFFFFFFFFFFFFFFFFFFFFFFFFFFFFFFFFFFFFFFF AND EQ PUSH2 0xD22 JUMPI PUSH1 0x1 DUP2 PUSH1 0x1 ADD PUSH1 0x15 PUSH2 0x100 EXP DUP2 SLOAD DUP2 PUSH1 0xFF MUL NOT AND SWAP1 DUP4 PUSH1 0x2 DUP2 GT ISZERO PUSH2 0xCF7 JUMPI PUSH2 0xCF6 PUSH2 0x1FDF JUMP JUMPDEST JUMPDEST MUL OR SWAP1 SSTORE POP PUSH1 0x1 PUSH1 0x40 MLOAD DUP1 PUSH1 0x80 ADD PUSH1 0x40 MSTORE DUP1 PUSH1 0x4E DUP2 MSTORE PUSH1 0x20 ADD PUSH2 0x20F3 PUSH1 0x4E SWAP2 CODECOPY SWAP4 POP SWAP4 POP POP POP PUSH2 0xF41 JUMP JUMPDEST PUSH1 0x1 PUSH1 0x40 MLOAD DUP1 PUSH1 0x60 ADD PUSH1 0x40 MSTORE DUP1 PUSH1 0x2C DUP2 MSTORE PUSH1 0x20 ADD PUSH2 0x20C7 PUSH1 0x2C SWAP2 CODECOPY SWAP4 POP SWAP4 POP POP POP PUSH2 0xF41 JUMP JUMPDEST PUSH1 0x0 PUSH20 0xFFFFFFFFFFFFFFFFFFFFFFFFFFFFFFFFFFFFFFFF AND DUP2 PUSH1 0x1 ADD PUSH1 0x0 SWAP1 SLOAD SWAP1 PUSH2 0x100 EXP SWAP1 DIV PUSH20 0xFFFFFFFFFFFFFFFFFFFFFFFFFFFFFFFFFFFFFFFF AND PUSH20 0xFFFFFFFFFFFFFFFFFFFFFFFFFFFFFFFFFFFFFFFF AND EQ ISZERO PUSH2 0xF02 JUMPI DUP2 DUP2 PUSH1 0x1 ADD PUSH1 0x0 PUSH2 0x100 EXP DUP2 SLOAD DUP2 PUSH20 0xFFFFFFFFFFFFFFFFFFFFFFFFFFFFFFFFFFFFFFFF MUL NOT AND SWAP1 DUP4 PUSH20 0xFFFFFFFFFFFFFFFFFFFFFFFFFFFFFFFFFFFFFFFF AND MUL OR SWAP1 SSTORE POP PUSH32 0x8F5866C09E99941481E2BE79D3A7698371543FE3AD3387B903553FD6043E8550 DUP6 DUP4 PUSH1 0x2 DUP1 DUP2 GT ISZERO PUSH2 0xE1A JUMPI PUSH2 0xE19 PUSH2 0x1FDF JUMP JUMPDEST JUMPDEST PUSH1 0x40 MLOAD PUSH2 0xE29 SWAP4 SWAP3 SWAP2 SWAP1 PUSH2 0x1DBD JUMP JUMPDEST PUSH1 0x40 MLOAD DUP1 SWAP2 SUB SWAP1 LOG1 PUSH1 0x0 PUSH20 0xFFFFFFFFFFFFFFFFFFFFFFFFFFFFFFFFFFFFFFFF AND DUP2 PUSH1 0x0 ADD PUSH1 0x0 SWAP1 SLOAD SWAP1 PUSH2 0x100 EXP SWAP1 DIV PUSH20 0xFFFFFFFFFFFFFFFFFFFFFFFFFFFFFFFFFFFFFFFF AND PUSH20 0xFFFFFFFFFFFFFFFFFFFFFFFFFFFFFFFFFFFFFFFF AND EQ PUSH2 0xEDC JUMPI PUSH1 0x1 DUP2 PUSH1 0x1 ADD PUSH1 0x15 PUSH2 0x100 EXP DUP2 SLOAD DUP2 PUSH1 0xFF MUL NOT AND SWAP1 DUP4 PUSH1 0x2 DUP2 GT ISZERO PUSH2 0xEB1 JUMPI PUSH2 0xEB0 PUSH2 0x1FDF JUMP JUMPDEST JUMPDEST MUL OR SWAP1 SSTORE POP PUSH1 0x1 PUSH1 0x40 MLOAD DUP1 PUSH1 0x60 ADD PUSH1 0x40 MSTORE DUP1 PUSH1 0x35 DUP2 MSTORE PUSH1 0x20 ADD PUSH2 0x2141 PUSH1 0x35 SWAP2 CODECOPY SWAP4 POP SWAP4 POP POP POP PUSH2 0xF41 JUMP JUMPDEST PUSH1 0x1 PUSH1 0x40 MLOAD DUP1 PUSH1 0x60 ADD PUSH1 0x40 MSTORE DUP1 PUSH1 0x2C DUP2 MSTORE PUSH1 0x20 ADD PUSH2 0x2176 PUSH1 0x2C SWAP2 CODECOPY SWAP4 POP SWAP4 POP POP POP PUSH2 0xF41 JUMP JUMPDEST PUSH1 0x0 PUSH1 0x40 MLOAD DUP1 PUSH1 0x40 ADD PUSH1 0x40 MSTORE DUP1 PUSH1 0x20 DUP2 MSTORE PUSH1 0x20 ADD PUSH32 0x546869732067616D6520616C726561647920686173203220706C61796572732E DUP2 MSTORE POP SWAP4 POP SWAP4 POP POP POP JUMPDEST SWAP2 POP SWAP2 JUMP JUMPDEST PUSH1 0x0 PUSH1 0x1 PUSH1 0x2 DUP2 GT ISZERO PUSH2 0xF5C JUMPI PUSH2 0xF5B PUSH2 0x1FDF JUMP JUMPDEST JUMPDEST DUP3 PUSH1 0x60 ADD MLOAD PUSH1 0x2 DUP2 GT ISZERO PUSH2 0xF73 JUMPI PUSH2 0xF72 PUSH2 0x1FDF JUMP JUMPDEST JUMPDEST EQ ISZERO PUSH2 0xF85 JUMPI DUP2 PUSH1 0x0 ADD MLOAD SWAP1 POP PUSH2 0xFC6 JUMP JUMPDEST PUSH1 0x2 DUP1 DUP2 GT ISZERO PUSH2 0xF98 JUMPI PUSH2 0xF97 PUSH2 0x1FDF JUMP JUMPDEST JUMPDEST DUP3 PUSH1 0x60 ADD MLOAD PUSH1 0x2 DUP2 GT ISZERO PUSH2 0xFAF JUMPI PUSH2 0xFAE PUSH2 0x1FDF JUMP JUMPDEST JUMPDEST EQ ISZERO PUSH2 0xFC1 JUMPI DUP2 PUSH1 0x20 ADD MLOAD SWAP1 POP PUSH2 0xFC6 JUMP JUMPDEST PUSH1 0x0 SWAP1 POP JUMPDEST SWAP2 SWAP1 POP JUMP JUMPDEST PUSH1 0x0 DUP1 PUSH2 0xFD7 DUP4 PUSH2 0x11F5 JUMP JUMPDEST SWAP1 POP PUSH1 0x1 PUSH1 0x2 DUP2 GT ISZERO PUSH2 0xFED JUMPI PUSH2 0xFEC PUSH2 0x1FDF JUMP JUMPDEST JUMPDEST DUP2 PUSH1 0x2 DUP2 GT ISZERO PUSH2 0x1000 JUMPI PUSH2 0xFFF PUSH2 0x1FDF JUMP JUMPDEST JUMPDEST EQ ISZERO PUSH2 0x1010 JUMPI PUSH1 0x1 SWAP2 POP POP PUSH2 0x1154 JUMP JUMPDEST PUSH1 0x2 DUP1 DUP2 GT ISZERO PUSH2 0x1023 JUMPI PUSH2 0x1022 PUSH2 0x1FDF JUMP JUMPDEST JUMPDEST DUP2 PUSH1 0x2 DUP2 GT ISZERO PUSH2 0x1036 JUMPI PUSH2 0x1035 PUSH2 0x1FDF JUMP JUMPDEST JUMPDEST EQ ISZERO PUSH2 0x1046 JUMPI PUSH1 0x2 SWAP2 POP POP PUSH2 0x1154 JUMP JUMPDEST PUSH2 0x104F DUP4 PUSH2 0x13DE JUMP JUMPDEST SWAP1 POP PUSH1 0x1 PUSH1 0x2 DUP2 GT ISZERO PUSH2 0x1065 JUMPI PUSH2 0x1064 PUSH2 0x1FDF JUMP JUMPDEST JUMPDEST DUP2 PUSH1 0x2 DUP2 GT ISZERO PUSH2 0x1078 JUMPI PUSH2 0x1077 PUSH2 0x1FDF JUMP JUMPDEST JUMPDEST EQ ISZERO PUSH2 0x1088 JUMPI PUSH1 0x1 SWAP2 POP POP PUSH2 0x1154 JUMP JUMPDEST PUSH1 0x2 DUP1 DUP2 GT ISZERO PUSH2 0x109B JUMPI PUSH2 0x109A PUSH2 0x1FDF JUMP JUMPDEST JUMPDEST DUP2 PUSH1 0x2 DUP2 GT ISZERO PUSH2 0x10AE JUMPI PUSH2 0x10AD PUSH2 0x1FDF JUMP JUMPDEST JUMPDEST EQ ISZERO PUSH2 0x10BE JUMPI PUSH1 0x2 SWAP2 POP POP PUSH2 0x1154 JUMP JUMPDEST PUSH2 0x10C7 DUP4 PUSH2 0x15C7 JUMP JUMPDEST SWAP1 POP PUSH1 0x1 PUSH1 0x2 DUP2 GT ISZERO PUSH2 0x10DD JUMPI PUSH2 0x10DC PUSH2 0x1FDF JUMP JUMPDEST JUMPDEST DUP2 PUSH1 0x2 DUP2 GT ISZERO PUSH2 0x10F0 JUMPI PUSH2 0x10EF PUSH2 0x1FDF JUMP JUMPDEST JUMPDEST EQ ISZERO PUSH2 0x1100 JUMPI PUSH1 0x1 SWAP2 POP POP PUSH2 0x1154 JUMP JUMPDEST PUSH1 0x2 DUP1 DUP2 GT ISZERO PUSH2 0x1113 JUMPI PUSH2 0x1112 PUSH2 0x1FDF JUMP JUMPDEST JUMPDEST DUP2 PUSH1 0x2 DUP2 GT ISZERO PUSH2 0x1126 JUMPI PUSH2 0x1125 PUSH2 0x1FDF JUMP JUMPDEST JUMPDEST EQ ISZERO PUSH2 0x1136 JUMPI PUSH1 0x2 SWAP2 POP POP PUSH2 0x1154 JUMP JUMPDEST PUSH2 0x113F DUP4 PUSH2 0x1923 JUMP JUMPDEST ISZERO PUSH2 0x114E JUMPI PUSH1 0x3 SWAP2 POP POP PUSH2 0x1154 JUMP JUMPDEST PUSH1 0x0 SWAP2 POP POP JUMPDEST SWAP2 SWAP1 POP JUMP JUMPDEST PUSH1 0x1 PUSH1 0x2 DUP2 GT ISZERO PUSH2 0x116D JUMPI PUSH2 0x116C PUSH2 0x1FDF JUMP JUMPDEST JUMPDEST DUP2 PUSH1 0x60 ADD MLOAD PUSH1 0x2 DUP2 GT ISZERO PUSH2 0x1184 JUMPI PUSH2 0x1183 PUSH2 0x1FDF JUMP JUMPDEST JUMPDEST EQ ISZERO PUSH2 0x11C0 JUMPI PUSH1 0x2 DUP2 PUSH1 0x60 ADD SWAP1 PUSH1 0x2 DUP2 GT ISZERO PUSH2 0x11A3 JUMPI PUSH2 0x11A2 PUSH2 0x1FDF JUMP JUMPDEST JUMPDEST SWAP1 DUP2 PUSH1 0x2 DUP2 GT ISZERO PUSH2 0x11B7 JUMPI PUSH2 0x11B6 PUSH2 0x1FDF JUMP JUMPDEST JUMPDEST DUP2 MSTORE POP POP PUSH2 0x11F2 JUMP JUMPDEST PUSH1 0x1 DUP2 PUSH1 0x60 ADD SWAP1 PUSH1 0x2 DUP2 GT ISZERO PUSH2 0x11D9 JUMPI PUSH2 0x11D8 PUSH2 0x1FDF JUMP JUMPDEST JUMPDEST SWAP1 DUP2 PUSH1 0x2 DUP2 GT ISZERO PUSH2 0x11ED JUMPI PUSH2 0x11EC PUSH2 0x1FDF JUMP JUMPDEST JUMPDEST DUP2 MSTORE POP POP JUMPDEST POP JUMP JUMPDEST PUSH1 0x0 DUP1 PUSH1 0x0 SWAP1 POP JUMPDEST PUSH1 0x3 DUP2 PUSH1 0xFF AND LT ISZERO PUSH2 0x13D3 JUMPI PUSH1 0x1 DUP4 DUP3 PUSH1 0xFF AND PUSH1 0x3 DUP2 LT PUSH2 0x1221 JUMPI PUSH2 0x1220 PUSH2 0x200E JUMP JUMPDEST JUMPDEST PUSH1 0x20 MUL ADD MLOAD PUSH1 0x0 PUSH1 0x3 DUP2 LT PUSH2 0x1239 JUMPI PUSH2 0x1238 PUSH2 0x200E JUMP JUMPDEST JUMPDEST PUSH1 0x20 MUL ADD MLOAD PUSH1 0xFF AND EQ DUP1 PUSH2 0x1282 JUMPI POP PUSH1 0x2 DUP4 DUP3 PUSH1 0xFF AND PUSH1 0x3 DUP2 LT PUSH2 0x1260 JUMPI PUSH2 0x125F PUSH2 0x200E JUMP JUMPDEST JUMPDEST PUSH1 0x20 MUL ADD MLOAD PUSH1 0x0 PUSH1 0x3 DUP2 LT PUSH2 0x1278 JUMPI PUSH2 0x1277 PUSH2 0x200E JUMP JUMPDEST JUMPDEST PUSH1 0x20 MUL ADD MLOAD PUSH1 0xFF AND EQ JUMPDEST DUP1 ISZERO PUSH2 0x12F7 JUMPI POP DUP3 DUP2 PUSH1 0xFF AND PUSH1 0x3 DUP2 LT PUSH2 0x129F JUMPI PUSH2 0x129E PUSH2 0x200E JUMP JUMPDEST JUMPDEST PUSH1 0x20 MUL ADD MLOAD PUSH1 0x1 PUSH1 0x3 DUP2 LT PUSH2 0x12B7 JUMPI PUSH2 0x12B6 PUSH2 0x200E JUMP JUMPDEST JUMPDEST PUSH1 0x20 MUL ADD MLOAD PUSH1 0xFF AND DUP4 DUP3 PUSH1 0xFF AND PUSH1 0x3 DUP2 LT PUSH2 0x12D5 JUMPI PUSH2 0x12D4 PUSH2 0x200E JUMP JUMPDEST JUMPDEST PUSH1 0x20 MUL ADD MLOAD PUSH1 0x0 PUSH1 0x3 DUP2 LT PUSH2 0x12ED JUMPI PUSH2 0x12EC PUSH2 0x200E JUMP JUMPDEST JUMPDEST PUSH1 0x20 MUL ADD MLOAD PUSH1 0xFF AND EQ JUMPDEST DUP1 ISZERO PUSH2 0x136C JUMPI POP DUP3 DUP2 PUSH1 0xFF AND PUSH1 0x3 DUP2 LT PUSH2 0x1314 JUMPI PUSH2 0x1313 PUSH2 0x200E JUMP JUMPDEST JUMPDEST PUSH1 0x20 MUL ADD MLOAD PUSH1 0x2 PUSH1 0x3 DUP2 LT PUSH2 0x132C JUMPI PUSH2 0x132B PUSH2 0x200E JUMP JUMPDEST JUMPDEST PUSH1 0x20 MUL ADD MLOAD PUSH1 0xFF AND DUP4 DUP3 PUSH1 0xFF AND PUSH1 0x3 DUP2 LT PUSH2 0x134A JUMPI PUSH2 0x1349 PUSH2 0x200E JUMP JUMPDEST JUMPDEST PUSH1 0x20 MUL ADD MLOAD PUSH1 0x1 PUSH1 0x3 DUP2 LT PUSH2 0x1362 JUMPI PUSH2 0x1361 PUSH2 0x200E JUMP JUMPDEST JUMPDEST PUSH1 0x20 MUL ADD MLOAD PUSH1 0xFF AND EQ JUMPDEST ISZERO PUSH2 0x13C0 JUMPI PUSH1 0x1 DUP4 DUP3 PUSH1 0xFF AND PUSH1 0x3 DUP2 LT PUSH2 0x1389 JUMPI PUSH2 0x1388 PUSH2 0x200E JUMP JUMPDEST JUMPDEST PUSH1 0x20 MUL ADD MLOAD PUSH1 0x0 PUSH1 0x3 DUP2 LT PUSH2 0x13A1 JUMPI PUSH2 0x13A0 PUSH2 0x200E JUMP JUMPDEST JUMPDEST PUSH1 0x20 MUL ADD MLOAD PUSH1 0xFF AND EQ PUSH2 0x13B5 JUMPI PUSH1 0x2 PUSH2 0x13B8 JUMP JUMPDEST PUSH1 0x1 JUMPDEST SWAP2 POP POP PUSH2 0x13D9 JUMP JUMPDEST DUP1 DUP1 PUSH2 0x13CB SWAP1 PUSH2 0x1F86 JUMP JUMPDEST SWAP2 POP POP PUSH2 0x11FD JUMP JUMPDEST POP PUSH1 0x0 SWAP1 POP JUMPDEST SWAP2 SWAP1 POP JUMP JUMPDEST PUSH1 0x0 DUP1 PUSH1 0x0 SWAP1 POP JUMPDEST PUSH1 0x3 DUP2 PUSH1 0xFF AND LT ISZERO PUSH2 0x15BC JUMPI PUSH1 0x1 DUP4 PUSH1 0x0 PUSH1 0x3 DUP2 LT PUSH2 0x1408 JUMPI PUSH2 0x1407 PUSH2 0x200E JUMP JUMPDEST JUMPDEST PUSH1 0x20 MUL ADD MLOAD DUP3 PUSH1 0xFF AND PUSH1 0x3 DUP2 LT PUSH2 0x1422 JUMPI PUSH2 0x1421 PUSH2 0x200E JUMP JUMPDEST JUMPDEST PUSH1 0x20 MUL ADD MLOAD PUSH1 0xFF AND EQ DUP1 PUSH2 0x146B JUMPI POP PUSH1 0x2 DUP4 PUSH1 0x0 PUSH1 0x3 DUP2 LT PUSH2 0x1447 JUMPI PUSH2 0x1446 PUSH2 0x200E JUMP JUMPDEST JUMPDEST PUSH1 0x20 MUL ADD MLOAD DUP3 PUSH1 0xFF AND PUSH1 0x3 DUP2 LT PUSH2 0x1461 JUMPI PUSH2 0x1460 PUSH2 0x200E JUMP JUMPDEST JUMPDEST PUSH1 0x20 MUL ADD MLOAD PUSH1 0xFF AND EQ JUMPDEST DUP1 ISZERO PUSH2 0x14E0 JUMPI POP DUP3 PUSH1 0x1 PUSH1 0x3 DUP2 LT PUSH2 0x1486 JUMPI PUSH2 0x1485 PUSH2 0x200E JUMP JUMPDEST JUMPDEST PUSH1 0x20 MUL ADD MLOAD DUP2 PUSH1 0xFF AND PUSH1 0x3 DUP2 LT PUSH2 0x14A0 JUMPI PUSH2 0x149F PUSH2 0x200E JUMP JUMPDEST JUMPDEST PUSH1 0x20 MUL ADD MLOAD PUSH1 0xFF AND DUP4 PUSH1 0x0 PUSH1 0x3 DUP2 LT PUSH2 0x14BC JUMPI PUSH2 0x14BB PUSH2 0x200E JUMP JUMPDEST JUMPDEST PUSH1 0x20 MUL ADD MLOAD DUP3 PUSH1 0xFF AND PUSH1 0x3 DUP2 LT PUSH2 0x14D6 JUMPI PUSH2 0x14D5 PUSH2 0x200E JUMP JUMPDEST JUMPDEST PUSH1 0x20 MUL ADD MLOAD PUSH1 0xFF AND EQ JUMPDEST DUP1 ISZERO PUSH2 0x1555 JUMPI POP DUP3 PUSH1 0x2 PUSH1 0x3 DUP2 LT PUSH2 0x14FB JUMPI PUSH2 0x14FA PUSH2 0x200E JUMP JUMPDEST JUMPDEST PUSH1 0x20 MUL ADD MLOAD DUP2 PUSH1 0xFF AND PUSH1 0x3 DUP2 LT PUSH2 0x1515 JUMPI PUSH2 0x1514 PUSH2 0x200E JUMP JUMPDEST JUMPDEST PUSH1 0x20 MUL ADD MLOAD PUSH1 0xFF AND DUP4 PUSH1 0x1 PUSH1 0x3 DUP2 LT PUSH2 0x1531 JUMPI PUSH2 0x1530 PUSH2 0x200E JUMP JUMPDEST JUMPDEST PUSH1 0x20 MUL ADD MLOAD DUP3 PUSH1 0xFF AND PUSH1 0x3 DUP2 LT PUSH2 0x154B JUMPI PUSH2 0x154A PUSH2 0x200E JUMP JUMPDEST JUMPDEST PUSH1 0x20 MUL ADD MLOAD PUSH1 0xFF AND EQ JUMPDEST ISZERO PUSH2 0x15A9 JUMPI PUSH1 0x1 DUP4 PUSH1 0x0 PUSH1 0x3 DUP2 LT PUSH2 0x1570 JUMPI PUSH2 0x156F PUSH2 0x200E JUMP JUMPDEST JUMPDEST PUSH1 0x20 MUL ADD MLOAD DUP3 PUSH1 0xFF AND PUSH1 0x3 DUP2 LT PUSH2 0x158A JUMPI PUSH2 0x1589 PUSH2 0x200E JUMP JUMPDEST JUMPDEST PUSH1 0x20 MUL ADD MLOAD PUSH1 0xFF AND EQ PUSH2 0x159E JUMPI PUSH1 0x2 PUSH2 0x15A1 JUMP JUMPDEST PUSH1 0x1 JUMPDEST SWAP2 POP POP PUSH2 0x15C2 JUMP JUMPDEST DUP1 DUP1 PUSH2 0x15B4 SWAP1 PUSH2 0x1F86 JUMP JUMPDEST SWAP2 POP POP PUSH2 0x13E6 JUMP JUMPDEST POP PUSH1 0x0 SWAP1 POP JUMPDEST SWAP2 SWAP1 POP JUMP JUMPDEST PUSH1 0x0 PUSH1 0x1 DUP3 PUSH1 0x0 PUSH1 0x3 DUP2 LT PUSH2 0x15DF JUMPI PUSH2 0x15DE PUSH2 0x200E JUMP JUMPDEST JUMPDEST PUSH1 0x20 MUL ADD MLOAD PUSH1 0x0 PUSH1 0x3 DUP2 LT PUSH2 0x15F7 JUMPI PUSH2 0x15F6 PUSH2 0x200E JUMP JUMPDEST JUMPDEST PUSH1 0x20 MUL ADD MLOAD PUSH1 0xFF AND EQ DUP1 PUSH2 0x163E JUMPI POP PUSH1 0x2 DUP3 PUSH1 0x0 PUSH1 0x3 DUP2 LT PUSH2 0x161C JUMPI PUSH2 0x161B PUSH2 0x200E JUMP JUMPDEST JUMPDEST PUSH1 0x20 MUL ADD MLOAD PUSH1 0x0 PUSH1 0x3 DUP2 LT PUSH2 0x1634 JUMPI PUSH2 0x1633 PUSH2 0x200E JUMP JUMPDEST JUMPDEST PUSH1 0x20 MUL ADD MLOAD PUSH1 0xFF AND EQ JUMPDEST DUP1 ISZERO PUSH2 0x16AF JUMPI POP DUP2 PUSH1 0x1 PUSH1 0x3 DUP2 LT PUSH2 0x1659 JUMPI PUSH2 0x1658 PUSH2 0x200E JUMP JUMPDEST JUMPDEST PUSH1 0x20 MUL ADD MLOAD PUSH1 0x1 PUSH1 0x3 DUP2 LT PUSH2 0x1671 JUMPI PUSH2 0x1670 PUSH2 0x200E JUMP JUMPDEST JUMPDEST PUSH1 0x20 MUL ADD MLOAD PUSH1 0xFF AND DUP3 PUSH1 0x0 PUSH1 0x3 DUP2 LT PUSH2 0x168D JUMPI PUSH2 0x168C PUSH2 0x200E JUMP JUMPDEST JUMPDEST PUSH1 0x20 MUL ADD MLOAD PUSH1 0x0 PUSH1 0x3 DUP2 LT PUSH2 0x16A5 JUMPI PUSH2 0x16A4 PUSH2 0x200E JUMP JUMPDEST JUMPDEST PUSH1 0x20 MUL ADD MLOAD PUSH1 0xFF AND EQ JUMPDEST DUP1 ISZERO PUSH2 0x1720 JUMPI POP DUP2 PUSH1 0x2 PUSH1 0x3 DUP2 LT PUSH2 0x16CA JUMPI PUSH2 0x16C9 PUSH2 0x200E JUMP JUMPDEST JUMPDEST PUSH1 0x20 MUL ADD MLOAD PUSH1 0x2 PUSH1 0x3 DUP2 LT PUSH2 0x16E2 JUMPI PUSH2 0x16E1 PUSH2 0x200E JUMP JUMPDEST JUMPDEST PUSH1 0x20 MUL ADD MLOAD PUSH1 0xFF AND DUP3 PUSH1 0x1 PUSH1 0x3 DUP2 LT PUSH2 0x16FE JUMPI PUSH2 0x16FD PUSH2 0x200E JUMP JUMPDEST JUMPDEST PUSH1 0x20 MUL ADD MLOAD PUSH1 0x1 PUSH1 0x3 DUP2 LT PUSH2 0x1716 JUMPI PUSH2 0x1715 PUSH2 0x200E JUMP JUMPDEST JUMPDEST PUSH1 0x20 MUL ADD MLOAD PUSH1 0xFF AND EQ JUMPDEST ISZERO PUSH2 0x1771 JUMPI PUSH1 0x1 DUP3 PUSH1 0x0 PUSH1 0x3 DUP2 LT PUSH2 0x173B JUMPI PUSH2 0x173A PUSH2 0x200E JUMP JUMPDEST JUMPDEST PUSH1 0x20 MUL ADD MLOAD PUSH1 0x0 PUSH1 0x3 DUP2 LT PUSH2 0x1753 JUMPI PUSH2 0x1752 PUSH2 0x200E JUMP JUMPDEST JUMPDEST PUSH1 0x20 MUL ADD MLOAD PUSH1 0xFF AND EQ PUSH2 0x1767 JUMPI PUSH1 0x2 PUSH2 0x176A JUMP JUMPDEST PUSH1 0x1 JUMPDEST SWAP1 POP PUSH2 0x191E JUMP JUMPDEST PUSH1 0x1 DUP3 PUSH1 0x0 PUSH1 0x3 DUP2 LT PUSH2 0x1787 JUMPI PUSH2 0x1786 PUSH2 0x200E JUMP JUMPDEST JUMPDEST PUSH1 0x20 MUL ADD MLOAD PUSH1 0x2 PUSH1 0x3 DUP2 LT PUSH2 0x179F JUMPI PUSH2 0x179E PUSH2 0x200E JUMP JUMPDEST JUMPDEST PUSH1 0x20 MUL ADD MLOAD PUSH1 0xFF AND EQ DUP1 PUSH2 0x17E6 JUMPI POP PUSH1 0x2 DUP3 PUSH1 0x0 PUSH1 0x3 DUP2 LT PUSH2 0x17C4 JUMPI PUSH2 0x17C3 PUSH2 0x200E JUMP JUMPDEST JUMPDEST PUSH1 0x20 MUL ADD MLOAD PUSH1 0x2 PUSH1 0x3 DUP2 LT PUSH2 0x17DC JUMPI PUSH2 0x17DB PUSH2 0x200E JUMP JUMPDEST JUMPDEST PUSH1 0x20 MUL ADD MLOAD PUSH1 0xFF AND EQ JUMPDEST DUP1 ISZERO PUSH2 0x1857 JUMPI POP DUP2 PUSH1 0x1 PUSH1 0x3 DUP2 LT PUSH2 0x1801 JUMPI PUSH2 0x1800 PUSH2 0x200E JUMP JUMPDEST JUMPDEST PUSH1 0x20 MUL ADD MLOAD PUSH1 0x1 PUSH1 0x3 DUP2 LT PUSH2 0x1819 JUMPI PUSH2 0x1818 PUSH2 0x200E JUMP JUMPDEST JUMPDEST PUSH1 0x20 MUL ADD MLOAD PUSH1 0xFF AND DUP3 PUSH1 0x0 PUSH1 0x3 DUP2 LT PUSH2 0x1835 JUMPI PUSH2 0x1834 PUSH2 0x200E JUMP JUMPDEST JUMPDEST PUSH1 0x20 MUL ADD MLOAD PUSH1 0x2 PUSH1 0x3 DUP2 LT PUSH2 0x184D JUMPI PUSH2 0x184C PUSH2 0x200E JUMP JUMPDEST JUMPDEST PUSH1 0x20 MUL ADD MLOAD PUSH1 0xFF AND EQ JUMPDEST DUP1 ISZERO PUSH2 0x18C8 JUMPI POP DUP2 PUSH1 0x2 PUSH1 0x3 DUP2 LT PUSH2 0x1872 JUMPI PUSH2 0x1871 PUSH2 0x200E JUMP JUMPDEST JUMPDEST PUSH1 0x20 MUL ADD MLOAD PUSH1 0x0 PUSH1 0x3 DUP2 LT PUSH2 0x188A JUMPI PUSH2 0x1889 PUSH2 0x200E JUMP JUMPDEST JUMPDEST PUSH1 0x20 MUL ADD MLOAD PUSH1 0xFF AND DUP3 PUSH1 0x1 PUSH1 0x3 DUP2 LT PUSH2 0x18A6 JUMPI PUSH2 0x18A5 PUSH2 0x200E JUMP JUMPDEST JUMPDEST PUSH1 0x20 MUL ADD MLOAD PUSH1 0x1 PUSH1 0x3 DUP2 LT PUSH2 0x18BE JUMPI PUSH2 0x18BD PUSH2 0x200E JUMP JUMPDEST JUMPDEST PUSH1 0x20 MUL ADD MLOAD PUSH1 0xFF AND EQ JUMPDEST ISZERO PUSH2 0x1919 JUMPI PUSH1 0x1 DUP3 PUSH1 0x0 PUSH1 0x3 DUP2 LT PUSH2 0x18E3 JUMPI PUSH2 0x18E2 PUSH2 0x200E JUMP JUMPDEST JUMPDEST PUSH1 0x20 MUL ADD MLOAD PUSH1 0x2 PUSH1 0x3 DUP2 LT PUSH2 0x18FB JUMPI PUSH2 0x18FA PUSH2 0x200E JUMP JUMPDEST JUMPDEST PUSH1 0x20 MUL ADD MLOAD PUSH1 0xFF AND EQ PUSH2 0x190F JUMPI PUSH1 0x2 PUSH2 0x1912 JUMP JUMPDEST PUSH1 0x1 JUMPDEST SWAP1 POP PUSH2 0x191E JUMP JUMPDEST PUSH1 0x0 SWAP1 POP JUMPDEST SWAP2 SWAP1 POP JUMP JUMPDEST PUSH1 0x0 DUP1 PUSH1 0x0 SWAP1 POP JUMPDEST PUSH1 0x3 DUP2 PUSH1 0xFF AND LT ISZERO PUSH2 0x19FD JUMPI PUSH1 0x0 JUMPDEST PUSH1 0x3 DUP2 PUSH1 0xFF AND LT ISZERO PUSH2 0x19E9 JUMPI PUSH1 0x1 DUP5 DUP4 PUSH1 0xFF AND PUSH1 0x3 DUP2 LT PUSH2 0x195E JUMPI PUSH2 0x195D PUSH2 0x200E JUMP JUMPDEST JUMPDEST PUSH1 0x20 MUL ADD MLOAD DUP3 PUSH1 0xFF AND PUSH1 0x3 DUP2 LT PUSH2 0x1978 JUMPI PUSH2 0x1977 PUSH2 0x200E JUMP JUMPDEST JUMPDEST PUSH1 0x20 MUL ADD MLOAD PUSH1 0xFF AND EQ ISZERO DUP1 ISZERO PUSH2 0x19C6 JUMPI POP PUSH1 0x2 DUP5 DUP4 PUSH1 0xFF AND PUSH1 0x3 DUP2 LT PUSH2 0x19A1 JUMPI PUSH2 0x19A0 PUSH2 0x200E JUMP JUMPDEST JUMPDEST PUSH1 0x20 MUL ADD MLOAD DUP3 PUSH1 0xFF AND PUSH1 0x3 DUP2 LT PUSH2 0x19BB JUMPI PUSH2 0x19BA PUSH2 0x200E JUMP JUMPDEST JUMPDEST PUSH1 0x20 MUL ADD MLOAD PUSH1 0xFF AND EQ ISZERO JUMPDEST ISZERO PUSH2 0x19D6 JUMPI PUSH1 0x0 SWAP3 POP POP POP PUSH2 0x1A03 JUMP JUMPDEST DUP1 DUP1 PUSH2 0x19E1 SWAP1 PUSH2 0x1F86 JUMP JUMPDEST SWAP2 POP POP PUSH2 0x193A JUMP JUMPDEST POP DUP1 DUP1 PUSH2 0x19F5 SWAP1 PUSH2 0x1F86 JUMP JUMPDEST SWAP2 POP POP PUSH2 0x192B JUMP JUMPDEST POP PUSH1 0x1 SWAP1 POP JUMPDEST SWAP2 SWAP1 POP JUMP JUMPDEST PUSH1 0x40 MLOAD DUP1 PUSH1 0xA0 ADD PUSH1 0x40 MSTORE DUP1 PUSH1 0x0 PUSH20 0xFFFFFFFFFFFFFFFFFFFFFFFFFFFFFFFFFFFFFFFF AND DUP2 MSTORE PUSH1 0x20 ADD PUSH1 0x0 PUSH20 0xFFFFFFFFFFFFFFFFFFFFFFFFFFFFFFFFFFFFFFFF AND DUP2 MSTORE PUSH1 0x20 ADD PUSH1 0x0 PUSH1 0x3 DUP2 GT ISZERO PUSH2 0x1A61 JUMPI PUSH2 0x1A60 PUSH2 0x1FDF JUMP JUMPDEST JUMPDEST DUP2 MSTORE PUSH1 0x20 ADD PUSH1 0x0 PUSH1 0x2 DUP2 GT ISZERO PUSH2 0x1A7A JUMPI PUSH2 0x1A79 PUSH2 0x1FDF JUMP JUMPDEST JUMPDEST DUP2 MSTORE PUSH1 0x20 ADD PUSH2 0x1A87 PUSH2 0x1ADB JUMP JUMPDEST DUP2 MSTORE POP SWAP1 JUMP JUMPDEST DUP3 PUSH1 0x3 DUP2 ADD SWAP3 DUP3 ISZERO PUSH2 0x1ACA JUMPI SWAP2 PUSH1 0x20 MUL DUP3 ADD JUMPDEST DUP3 DUP2 GT ISZERO PUSH2 0x1AC9 JUMPI DUP3 MLOAD DUP3 SWAP1 PUSH1 0x3 PUSH2 0x1AB9 SWAP3 SWAP2 SWAP1 PUSH2 0x1B08 JUMP JUMPDEST POP SWAP2 PUSH1 0x20 ADD SWAP2 SWAP1 PUSH1 0x1 ADD SWAP1 PUSH2 0x1AA0 JUMP JUMPDEST JUMPDEST POP SWAP1 POP PUSH2 0x1AD7 SWAP2 SWAP1 PUSH2 0x1BA2 JUMP JUMPDEST POP SWAP1 JUMP JUMPDEST PUSH1 0x40 MLOAD DUP1 PUSH1 0x60 ADD PUSH1 0x40 MSTORE DUP1 PUSH1 0x3 SWAP1 JUMPDEST PUSH2 0x1AF2 PUSH2 0x1BC6 JUMP JUMPDEST DUP2 MSTORE PUSH1 0x20 ADD SWAP1 PUSH1 0x1 SWAP1 SUB SWAP1 DUP2 PUSH2 0x1AEA JUMPI SWAP1 POP POP SWAP1 JUMP JUMPDEST DUP3 PUSH1 0x3 PUSH1 0x1F ADD PUSH1 0x20 SWAP1 DIV DUP2 ADD SWAP3 DUP3 ISZERO PUSH2 0x1B91 JUMPI SWAP2 PUSH1 0x20 MUL DUP3 ADD PUSH1 0x0 JUMPDEST DUP4 DUP3 GT ISZERO PUSH2 0x1B62 JUMPI DUP4 MLOAD DUP4 DUP3 PUSH2 0x100 EXP DUP2 SLOAD DUP2 PUSH1 0xFF MUL NOT AND SWAP1 DUP4 PUSH1 0xFF AND MUL OR SWAP1 SSTORE POP SWAP3 PUSH1 0x20 ADD SWAP3 PUSH1 0x1 ADD PUSH1 0x20 DUP2 PUSH1 0x0 ADD DIV SWAP3 DUP4 ADD SWAP3 PUSH1 0x1 SUB MUL PUSH2 0x1B24 JUMP JUMPDEST DUP1 ISZERO PUSH2 0x1B8F JUMPI DUP3 DUP2 PUSH2 0x100 EXP DUP2 SLOAD SWAP1 PUSH1 0xFF MUL NOT AND SWAP1 SSTORE PUSH1 0x1 ADD PUSH1 0x20 DUP2 PUSH1 0x0 ADD DIV SWAP3 DUP4 ADD SWAP3 PUSH1 0x1 SUB MUL PUSH2 0x1B62 JUMP JUMPDEST POP JUMPDEST POP SWAP1 POP PUSH2 0x1B9E SWAP2 SWAP1 PUSH2 0x1BE8 JUMP JUMPDEST POP SWAP1 JUMP JUMPDEST JUMPDEST DUP1 DUP3 GT ISZERO PUSH2 0x1BC2 JUMPI PUSH1 0x0 DUP2 DUP2 PUSH2 0x1BB9 SWAP2 SWAP1 PUSH2 0x1C05 JUMP JUMPDEST POP PUSH1 0x1 ADD PUSH2 0x1BA3 JUMP JUMPDEST POP SWAP1 JUMP JUMPDEST PUSH1 0x40 MLOAD DUP1 PUSH1 0x60 ADD PUSH1 0x40 MSTORE DUP1 PUSH1 0x3 SWAP1 PUSH1 0x20 DUP3 MUL DUP1 CALLDATASIZE DUP4 CALLDATACOPY DUP1 DUP3 ADD SWAP2 POP POP SWAP1 POP POP SWAP1 JUMP JUMPDEST JUMPDEST DUP1 DUP3 GT ISZERO PUSH2 0x1C01 JUMPI PUSH1 0x0 DUP2 PUSH1 0x0 SWAP1 SSTORE POP PUSH1 0x1 ADD PUSH2 0x1BE9 JUMP JUMPDEST POP SWAP1 JUMP JUMPDEST POP PUSH1 0x0 SWAP1 SSTORE JUMP JUMPDEST PUSH1 0x0 DUP2 CALLDATALOAD SWAP1 POP PUSH2 0x1C1B DUP2 PUSH2 0x2067 JUMP JUMPDEST SWAP3 SWAP2 POP POP JUMP JUMPDEST PUSH1 0x0 DUP2 CALLDATALOAD SWAP1 POP PUSH2 0x1C30 DUP2 PUSH2 0x207E JUMP JUMPDEST SWAP3 SWAP2 POP POP JUMP JUMPDEST PUSH1 0x0 PUSH1 0x20 DUP3 DUP5 SUB SLT ISZERO PUSH2 0x1C4C JUMPI PUSH2 0x1C4B PUSH2 0x203D JUMP JUMPDEST JUMPDEST PUSH1 0x0 PUSH2 0x1C5A DUP5 DUP3 DUP6 ADD PUSH2 0x1C0C JUMP JUMPDEST SWAP2 POP POP SWAP3 SWAP2 POP POP JUMP JUMPDEST PUSH1 0x0 DUP1 PUSH1 0x0 PUSH1 0x60 DUP5 DUP7 SUB SLT ISZERO PUSH2 0x1C7C JUMPI PUSH2 0x1C7B PUSH2 0x203D JUMP JUMPDEST JUMPDEST PUSH1 0x0 PUSH2 0x1C8A DUP7 DUP3 DUP8 ADD PUSH2 0x1C0C JUMP JUMPDEST SWAP4 POP POP PUSH1 0x20 PUSH2 0x1C9B DUP7 DUP3 DUP8 ADD PUSH2 0x1C21 JUMP JUMPDEST SWAP3 POP POP PUSH1 0x40 PUSH2 0x1CAC DUP7 DUP3 DUP8 ADD PUSH2 0x1C21 JUMP JUMPDEST SWAP2 POP POP SWAP3 POP SWAP3 POP SWAP3 JUMP JUMPDEST PUSH2 0x1CBF DUP2 PUSH2 0x1E7E JUMP JUMPDEST DUP3 MSTORE POP POP JUMP JUMPDEST PUSH2 0x1CCE DUP2 PUSH2 0x1E90 JUMP JUMPDEST DUP3 MSTORE POP POP JUMP JUMPDEST PUSH2 0x1CDD DUP2 PUSH2 0x1EE6 JUMP JUMPDEST DUP3 MSTORE POP POP JUMP JUMPDEST PUSH1 0x0 PUSH2 0x1CEE DUP3 PUSH2 0x1E62 JUMP JUMPDEST PUSH2 0x1CF8 DUP2 DUP6 PUSH2 0x1E6D JUMP JUMPDEST SWAP4 POP PUSH2 0x1D08 DUP2 DUP6 PUSH1 0x20 DUP7 ADD PUSH2 0x1F0A JUMP JUMPDEST PUSH2 0x1D11 DUP2 PUSH2 0x2042 JUMP JUMPDEST DUP5 ADD SWAP2 POP POP SWAP3 SWAP2 POP POP JUMP JUMPDEST PUSH2 0x1D25 DUP2 PUSH2 0x1ECF JUMP JUMPDEST DUP3 MSTORE POP POP JUMP JUMPDEST PUSH2 0x1D34 DUP2 PUSH2 0x1EF8 JUMP JUMPDEST DUP3 MSTORE POP POP JUMP JUMPDEST PUSH2 0x1D43 DUP2 PUSH2 0x1ED9 JUMP JUMPDEST DUP3 MSTORE POP POP JUMP JUMPDEST PUSH1 0x0 PUSH1 0x40 DUP3 ADD SWAP1 POP PUSH2 0x1D5E PUSH1 0x0 DUP4 ADD DUP6 PUSH2 0x1CC5 JUMP JUMPDEST DUP2 DUP2 SUB PUSH1 0x20 DUP4 ADD MSTORE PUSH2 0x1D70 DUP2 DUP5 PUSH2 0x1CE3 JUMP JUMPDEST SWAP1 POP SWAP4 SWAP3 POP POP POP JUMP JUMPDEST PUSH1 0x0 PUSH1 0x20 DUP3 ADD SWAP1 POP PUSH2 0x1D8E PUSH1 0x0 DUP4 ADD DUP5 PUSH2 0x1D1C JUMP JUMPDEST SWAP3 SWAP2 POP POP JUMP JUMPDEST PUSH1 0x0 PUSH1 0x40 DUP3 ADD SWAP1 POP PUSH2 0x1DA9 PUSH1 0x0 DUP4 ADD DUP6 PUSH2 0x1D1C JUMP JUMPDEST PUSH2 0x1DB6 PUSH1 0x20 DUP4 ADD DUP5 PUSH2 0x1CB6 JUMP JUMPDEST SWAP4 SWAP3 POP POP POP JUMP JUMPDEST PUSH1 0x0 PUSH1 0x60 DUP3 ADD SWAP1 POP PUSH2 0x1DD2 PUSH1 0x0 DUP4 ADD DUP7 PUSH2 0x1D1C JUMP JUMPDEST PUSH2 0x1DDF PUSH1 0x20 DUP4 ADD DUP6 PUSH2 0x1CB6 JUMP JUMPDEST PUSH2 0x1DEC PUSH1 0x40 DUP4 ADD DUP5 PUSH2 0x1D3A JUMP JUMPDEST SWAP5 SWAP4 POP POP POP POP JUMP JUMPDEST PUSH1 0x0 PUSH1 0x80 DUP3 ADD SWAP1 POP PUSH2 0x1E09 PUSH1 0x0 DUP4 ADD DUP8 PUSH2 0x1D1C JUMP JUMPDEST PUSH2 0x1E16 PUSH1 0x20 DUP4 ADD DUP7 PUSH2 0x1CB6 JUMP JUMPDEST PUSH2 0x1E23 PUSH1 0x40 DUP4 ADD DUP6 PUSH2 0x1D2B JUMP JUMPDEST PUSH2 0x1E30 PUSH1 0x60 DUP4 ADD DUP5 PUSH2 0x1D2B JUMP JUMPDEST SWAP6 SWAP5 POP POP POP POP POP JUMP JUMPDEST PUSH1 0x0 PUSH1 0x40 DUP3 ADD SWAP1 POP PUSH2 0x1E4E PUSH1 0x0 DUP4 ADD DUP6 PUSH2 0x1D1C JUMP JUMPDEST PUSH2 0x1E5B PUSH1 0x20 DUP4 ADD DUP5 PUSH2 0x1CD4 JUMP JUMPDEST SWAP4 SWAP3 POP POP POP JUMP JUMPDEST PUSH1 0x0 DUP2 MLOAD SWAP1 POP SWAP2 SWAP1 POP JUMP JUMPDEST PUSH1 0x0 DUP3 DUP3 MSTORE PUSH1 0x20 DUP3 ADD SWAP1 POP SWAP3 SWAP2 POP POP JUMP JUMPDEST PUSH1 0x0 PUSH2 0x1E89 DUP3 PUSH2 0x1EAF JUMP JUMPDEST SWAP1 POP SWAP2 SWAP1 POP JUMP JUMPDEST PUSH1 0x0 DUP2 ISZERO ISZERO SWAP1 POP SWAP2 SWAP1 POP JUMP JUMPDEST PUSH1 0x0 DUP2 SWAP1 POP PUSH2 0x1EAA DUP3 PUSH2 0x2053 JUMP JUMPDEST SWAP2 SWAP1 POP JUMP JUMPDEST PUSH1 0x0 PUSH20 0xFFFFFFFFFFFFFFFFFFFFFFFFFFFFFFFFFFFFFFFF DUP3 AND SWAP1 POP SWAP2 SWAP1 POP JUMP JUMPDEST PUSH1 0x0 DUP2 SWAP1 POP SWAP2 SWAP1 POP JUMP JUMPDEST PUSH1 0x0 PUSH1 0xFF DUP3 AND SWAP1 POP SWAP2 SWAP1 POP JUMP JUMPDEST PUSH1 0x0 PUSH2 0x1EF1 DUP3 PUSH2 0x1E9C JUMP JUMPDEST SWAP1 POP SWAP2 SWAP1 POP JUMP JUMPDEST PUSH1 0x0 PUSH2 0x1F03 DUP3 PUSH2 0x1ED9 JUMP JUMPDEST SWAP1 POP SWAP2 SWAP1 POP JUMP JUMPDEST PUSH1 0x0 JUMPDEST DUP4 DUP2 LT ISZERO PUSH2 0x1F28 JUMPI DUP1 DUP3 ADD MLOAD DUP2 DUP5 ADD MSTORE PUSH1 0x20 DUP2 ADD SWAP1 POP PUSH2 0x1F0D JUMP JUMPDEST DUP4 DUP2 GT ISZERO PUSH2 0x1F37 JUMPI PUSH1 0x0 DUP5 DUP5 ADD MSTORE JUMPDEST POP POP POP POP JUMP JUMPDEST PUSH1 0x0 PUSH2 0x1F48 DUP3 PUSH2 0x1ECF JUMP JUMPDEST SWAP2 POP PUSH32 0xFFFFFFFFFFFFFFFFFFFFFFFFFFFFFFFFFFFFFFFFFFFFFFFFFFFFFFFFFFFFFFFF DUP3 EQ ISZERO PUSH2 0x1F7B JUMPI PUSH2 0x1F7A PUSH2 0x1FB0 JUMP JUMPDEST JUMPDEST PUSH1 0x1 DUP3 ADD SWAP1 POP SWAP2 SWAP1 POP JUMP JUMPDEST PUSH1 0x0 PUSH2 0x1F91 DUP3 PUSH2 0x1ED9 JUMP JUMPDEST SWAP2 POP PUSH1 0xFF DUP3 EQ ISZERO PUSH2 0x1FA5 JUMPI PUSH2 0x1FA4 PUSH2 0x1FB0 JUMP JUMPDEST JUMPDEST PUSH1 0x1 DUP3 ADD SWAP1 POP SWAP2 SWAP1 POP JUMP JUMPDEST PUSH32 0x4E487B7100000000000000000000000000000000000000000000000000000000 PUSH1 0x0 MSTORE PUSH1 0x11 PUSH1 0x4 MSTORE PUSH1 0x24 PUSH1 0x0 REVERT JUMPDEST PUSH32 0x4E487B7100000000000000000000000000000000000000000000000000000000 PUSH1 0x0 MSTORE PUSH1 0x21 PUSH1 0x4 MSTORE PUSH1 0x24 PUSH1 0x0 REVERT JUMPDEST PUSH32 0x4E487B7100000000000000000000000000000000000000000000000000000000 PUSH1 0x0 MSTORE PUSH1 0x32 PUSH1 0x4 MSTORE PUSH1 0x24 PUSH1 0x0 REVERT JUMPDEST PUSH1 0x0 DUP1 REVERT JUMPDEST PUSH1 0x0 PUSH1 0x1F NOT PUSH1 0x1F DUP4 ADD AND SWAP1 POP SWAP2 SWAP1 POP JUMP JUMPDEST PUSH1 0x4 DUP2 LT PUSH2 0x2064 JUMPI PUSH2 0x2063 PUSH2 0x1FDF JUMP JUMPDEST JUMPDEST POP JUMP JUMPDEST PUSH2 0x2070 DUP2 PUSH2 0x1ECF JUMP JUMPDEST DUP2 EQ PUSH2 0x207B JUMPI PUSH1 0x0 DUP1 REVERT JUMPDEST POP JUMP JUMPDEST PUSH2 0x2087 DUP2 PUSH2 0x1ED9 JUMP JUMPDEST DUP2 EQ PUSH2 0x2092 JUMPI PUSH1 0x0 DUP1 REVERT JUMPDEST POP JUMP INVALID SLOAD PUSH9 0x65726520697320616C PUSH19 0x656164792061206D61726B2061742074686520 PUSH8 0x6976656E20636F6F PUSH19 0x64696E617465732E4A6F696E65642061732070 PUSH13 0x6179657220312E2047616D6520 PUSH9 0x61736E277420737461 PUSH19 0x746564207965742E4A6F696E65642061732070 PUSH13 0x6179657220312E20506C617965 PUSH19 0x203220616C7265616479206578697374732E20 POP PUSH13 0x6179657220312063616E206D61 PUSH12 0x652074686520666972737420 PUSH14 0x6F76652E4A6F696E656420617320 PUSH17 0x6C6179657220322E20506C617965722031 KECCAK256 PUSH4 0x616E206D PUSH2 0x6B65 KECCAK256 PUSH21 0x6865206669727374206D6F76652E4A6F696E656420 PUSH2 0x7320 PUSH17 0x6C6179657220322E2047616D6520686173 PUSH15 0x27742073746172746564207965742E SLOAD PUSH9 0x69732067616D652064 PUSH16 0x65736E277420686176652074776F2070 PUSH13 0x6179657273207965742EA26469 PUSH17 0x667358221220333D2FD143B381D07E29BF 0xF8 0xAA SAR 0xF6 TIMESTAMP EXTCODESIZE PUSH16 0x9F9950A43744441D016A058E99056473 PUSH16 0x6C634300080700330000000000000000 "
		},
		"gasEstimates": {
			"creation": {
				"codeDepositCost": "1740400",
				"executionCost": "1827",
				"totalCost": "1742227"
			},
			"external": {
				"joinGame(uint256)": "infinite",
				"makeMove(uint256,uint8,uint8)": "infinite",
				"newGame()": "infinite"
			},
			"internal": {
				"calculateWinner(uint8[3] memory[3] memory)": "infinite",
				"getCurrentPlayer(struct TicTacToe.Game memory)": "infinite",
				"isBoardFull(uint8[3] memory[3] memory)": "infinite",
				"nextPlayer(struct TicTacToe.Game memory)": "infinite",
				"winnerInColumn(uint8[3] memory[3] memory)": "infinite",
				"winnerInDiagonal(uint8[3] memory[3] memory)": "infinite",
				"winnerInRow(uint8[3] memory[3] memory)": "infinite"
			}
		},
		"methodIdentifiers": {
			"joinGame(uint256)": "efaa55a0",
			"makeMove(uint256,uint8,uint8)": "aa57f09c",
			"newGame()": "7d03f5f3"
		}
	},
	"abi": [
		{
			"anonymous": false,
			"inputs": [
				{
					"indexed": false,
					"internalType": "uint256",
					"name": "gameId",
					"type": "uint256"
				},
				{
					"indexed": false,
					"internalType": "address",
					"name": "creator",
					"type": "address"
				}
			],
			"name": "GameCreated",
			"type": "event"
		},
		{
			"anonymous": false,
			"inputs": [
				{
					"indexed": false,
					"internalType": "uint256",
					"name": "gameId",
					"type": "uint256"
				},
				{
					"indexed": false,
					"internalType": "enum TicTacToe.Winners",
					"name": "winner",
					"type": "uint8"
				}
			],
			"name": "GameOver",
			"type": "event"
		},
		{
			"anonymous": false,
			"inputs": [
				{
					"indexed": false,
					"internalType": "uint256",
					"name": "gameId",
					"type": "uint256"
				},
				{
					"indexed": false,
					"internalType": "address",
					"name": "player",
					"type": "address"
				},
				{
					"indexed": false,
					"internalType": "uint8",
					"name": "playerNumber",
					"type": "uint8"
				}
			],
			"name": "PlayerJoinedGame",
			"type": "event"
		},
		{
			"anonymous": false,
			"inputs": [
				{
					"indexed": false,
					"internalType": "uint256",
					"name": "gameId",
					"type": "uint256"
				},
				{
					"indexed": false,
					"internalType": "address",
					"name": "player",
					"type": "address"
				},
				{
					"indexed": false,
					"internalType": "uint256",
					"name": "xCoordinate",
					"type": "uint256"
				},
				{
					"indexed": false,
					"internalType": "uint256",
					"name": "yCoordinate",
					"type": "uint256"
				}
			],
			"name": "PlayerMadeMove",
			"type": "event"
		},
		{
			"inputs": [
				{
					"internalType": "uint256",
					"name": "_gameId",
					"type": "uint256"
				}
			],
			"name": "joinGame",
			"outputs": [
				{
					"internalType": "bool",
					"name": "isSuccess",
					"type": "bool"
				},
				{
					"internalType": "string",
					"name": "reason",
					"type": "string"
				}
			],
			"stateMutability": "nonpayable",
			"type": "function"
		},
		{
			"inputs": [
				{
					"internalType": "uint256",
					"name": "_gameId",
					"type": "uint256"
				},
				{
					"internalType": "uint8",
					"name": "_xCoordinate",
					"type": "uint8"
				},
				{
					"internalType": "uint8",
					"name": "_yCoordinate",
					"type": "uint8"
				}
			],
			"name": "makeMove",
			"outputs": [
				{
					"internalType": "bool",
					"name": "isSuccess",
					"type": "bool"
				},
				{
					"internalType": "string",
					"name": "reason",
					"type": "string"
				}
			],
			"stateMutability": "nonpayable",
			"type": "function"
		},
		{
			"inputs": [],
			"name": "newGame",
			"outputs": [
				{
					"internalType": "uint256",
					"name": "gameId",
					"type": "uint256"
				}
			],
			"stateMutability": "nonpayable",
			"type": "function"
		}
	]
}